{
  "contractName": "SharedEV",
  "abi": [
    {
      "inputs": [],
      "stateMutability": "nonpayable",
      "type": "constructor"
    },
    {
      "anonymous": false,
      "inputs": [
        {
          "indexed": true,
          "internalType": "address",
          "name": "owner",
          "type": "address"
        },
        {
          "indexed": true,
          "internalType": "address",
          "name": "approved",
          "type": "address"
        },
        {
          "indexed": true,
          "internalType": "uint256",
          "name": "tokenId",
          "type": "uint256"
        }
      ],
      "name": "Approval",
      "type": "event"
    },
    {
      "anonymous": false,
      "inputs": [
        {
          "indexed": true,
          "internalType": "address",
          "name": "owner",
          "type": "address"
        },
        {
          "indexed": true,
          "internalType": "address",
          "name": "operator",
          "type": "address"
        },
        {
          "indexed": false,
          "internalType": "bool",
          "name": "approved",
          "type": "bool"
        }
      ],
      "name": "ApprovalForAll",
      "type": "event"
    },
    {
      "anonymous": false,
      "inputs": [
        {
          "indexed": true,
          "internalType": "address",
          "name": "previousOwner",
          "type": "address"
        },
        {
          "indexed": true,
          "internalType": "address",
          "name": "newOwner",
          "type": "address"
        }
      ],
      "name": "OwnershipTransferred",
      "type": "event"
    },
    {
      "anonymous": false,
      "inputs": [
        {
          "indexed": true,
          "internalType": "address",
          "name": "from",
          "type": "address"
        },
        {
          "indexed": true,
          "internalType": "address",
          "name": "to",
          "type": "address"
        },
        {
          "indexed": true,
          "internalType": "uint256",
          "name": "tokenId",
          "type": "uint256"
        }
      ],
      "name": "Transfer",
      "type": "event"
    },
    {
      "anonymous": false,
      "inputs": [
        {
          "indexed": false,
          "internalType": "address",
          "name": "customer",
          "type": "address"
        },
        {
          "indexed": false,
          "internalType": "uint256",
          "name": "tokenId",
          "type": "uint256"
        },
        {
          "indexed": false,
          "internalType": "uint256",
          "name": "blockTimeStamp",
          "type": "uint256"
        }
      ],
      "name": "checkInEvent",
      "type": "event"
    },
    {
      "anonymous": false,
      "inputs": [
        {
          "indexed": false,
          "internalType": "address",
          "name": "customer",
          "type": "address"
        },
        {
          "indexed": false,
          "internalType": "uint256",
          "name": "tokenId",
          "type": "uint256"
        },
        {
          "indexed": false,
          "internalType": "uint256",
          "name": "blockTimeStamp",
          "type": "uint256"
        }
      ],
      "name": "checkOutEvent",
      "type": "event"
    },
    {
      "anonymous": false,
      "inputs": [
        {
          "indexed": false,
          "internalType": "address",
          "name": "customer",
          "type": "address"
        },
        {
          "indexed": false,
          "internalType": "uint256",
          "name": "tokenId",
          "type": "uint256"
        },
        {
          "indexed": false,
          "internalType": "string",
          "name": "tokenURI",
          "type": "string"
        },
        {
          "indexed": false,
          "internalType": "uint256",
          "name": "blockTimeStamp",
          "type": "uint256"
        }
      ],
      "name": "createSharedEVEvent",
      "type": "event"
    },
    {
      "inputs": [
        {
          "internalType": "address",
          "name": "to",
          "type": "address"
        },
        {
          "internalType": "uint256",
          "name": "tokenId",
          "type": "uint256"
        }
      ],
      "name": "approve",
      "outputs": [],
      "stateMutability": "nonpayable",
      "type": "function"
    },
    {
      "inputs": [
        {
          "internalType": "address",
          "name": "owner",
          "type": "address"
        }
      ],
      "name": "balanceOf",
      "outputs": [
        {
          "internalType": "uint256",
          "name": "",
          "type": "uint256"
        }
      ],
      "stateMutability": "view",
      "type": "function",
      "constant": true
    },
    {
      "inputs": [],
      "name": "baseURI",
      "outputs": [
        {
          "internalType": "string",
          "name": "",
          "type": "string"
        }
      ],
      "stateMutability": "view",
      "type": "function",
      "constant": true
    },
    {
      "inputs": [
        {
          "internalType": "uint256",
          "name": "tokenId",
          "type": "uint256"
        }
      ],
      "name": "getApproved",
      "outputs": [
        {
          "internalType": "address",
          "name": "",
          "type": "address"
        }
      ],
      "stateMutability": "view",
      "type": "function",
      "constant": true
    },
    {
      "inputs": [
        {
          "internalType": "address",
          "name": "owner",
          "type": "address"
        },
        {
          "internalType": "address",
          "name": "operator",
          "type": "address"
        }
      ],
      "name": "isApprovedForAll",
      "outputs": [
        {
          "internalType": "bool",
          "name": "",
          "type": "bool"
        }
      ],
      "stateMutability": "view",
      "type": "function",
      "constant": true
    },
    {
      "inputs": [],
      "name": "name",
      "outputs": [
        {
          "internalType": "string",
          "name": "",
          "type": "string"
        }
      ],
      "stateMutability": "view",
      "type": "function",
      "constant": true
    },
    {
      "inputs": [],
      "name": "owner",
      "outputs": [
        {
          "internalType": "address",
          "name": "",
          "type": "address"
        }
      ],
      "stateMutability": "view",
      "type": "function",
      "constant": true
    },
    {
      "inputs": [
        {
          "internalType": "uint256",
          "name": "tokenId",
          "type": "uint256"
        }
      ],
      "name": "ownerOf",
      "outputs": [
        {
          "internalType": "address",
          "name": "",
          "type": "address"
        }
      ],
      "stateMutability": "view",
      "type": "function",
      "constant": true
    },
    {
      "inputs": [],
      "name": "renounceOwnership",
      "outputs": [],
      "stateMutability": "nonpayable",
      "type": "function"
    },
    {
      "inputs": [
        {
          "internalType": "address",
          "name": "from",
          "type": "address"
        },
        {
          "internalType": "address",
          "name": "to",
          "type": "address"
        },
        {
          "internalType": "uint256",
          "name": "tokenId",
          "type": "uint256"
        }
      ],
      "name": "safeTransferFrom",
      "outputs": [],
      "stateMutability": "nonpayable",
      "type": "function"
    },
    {
      "inputs": [
        {
          "internalType": "address",
          "name": "from",
          "type": "address"
        },
        {
          "internalType": "address",
          "name": "to",
          "type": "address"
        },
        {
          "internalType": "uint256",
          "name": "tokenId",
          "type": "uint256"
        },
        {
          "internalType": "bytes",
          "name": "_data",
          "type": "bytes"
        }
      ],
      "name": "safeTransferFrom",
      "outputs": [],
      "stateMutability": "nonpayable",
      "type": "function"
    },
    {
      "inputs": [
        {
          "internalType": "address",
          "name": "operator",
          "type": "address"
        },
        {
          "internalType": "bool",
          "name": "approved",
          "type": "bool"
        }
      ],
      "name": "setApprovalForAll",
      "outputs": [],
      "stateMutability": "nonpayable",
      "type": "function"
    },
    {
      "inputs": [
        {
          "internalType": "uint256",
          "name": "",
          "type": "uint256"
        }
      ],
      "name": "sharedEVs",
      "outputs": [
        {
          "internalType": "uint256",
          "name": "tokenId",
          "type": "uint256"
        },
        {
          "internalType": "string",
          "name": "description",
          "type": "string"
        },
        {
          "internalType": "string",
          "name": "tokenURI",
          "type": "string"
        },
        {
          "internalType": "uint256",
          "name": "checkOutDate",
          "type": "uint256"
        },
        {
          "internalType": "address",
          "name": "customer",
          "type": "address"
        }
      ],
      "stateMutability": "view",
      "type": "function",
      "constant": true
    },
    {
      "inputs": [
        {
          "internalType": "bytes4",
          "name": "interfaceId",
          "type": "bytes4"
        }
      ],
      "name": "supportsInterface",
      "outputs": [
        {
          "internalType": "bool",
          "name": "",
          "type": "bool"
        }
      ],
      "stateMutability": "view",
      "type": "function",
      "constant": true
    },
    {
      "inputs": [],
      "name": "symbol",
      "outputs": [
        {
          "internalType": "string",
          "name": "",
          "type": "string"
        }
      ],
      "stateMutability": "view",
      "type": "function",
      "constant": true
    },
    {
      "inputs": [
        {
          "internalType": "uint256",
          "name": "index",
          "type": "uint256"
        }
      ],
      "name": "tokenByIndex",
      "outputs": [
        {
          "internalType": "uint256",
          "name": "",
          "type": "uint256"
        }
      ],
      "stateMutability": "view",
      "type": "function",
      "constant": true
    },
    {
      "inputs": [
        {
          "internalType": "address",
          "name": "owner",
          "type": "address"
        },
        {
          "internalType": "uint256",
          "name": "index",
          "type": "uint256"
        }
      ],
      "name": "tokenOfOwnerByIndex",
      "outputs": [
        {
          "internalType": "uint256",
          "name": "",
          "type": "uint256"
        }
      ],
      "stateMutability": "view",
      "type": "function",
      "constant": true
    },
    {
      "inputs": [
        {
          "internalType": "uint256",
          "name": "tokenId",
          "type": "uint256"
        }
      ],
      "name": "tokenURI",
      "outputs": [
        {
          "internalType": "string",
          "name": "",
          "type": "string"
        }
      ],
      "stateMutability": "view",
      "type": "function",
      "constant": true
    },
    {
      "inputs": [],
      "name": "totalSupply",
      "outputs": [
        {
          "internalType": "uint256",
          "name": "",
          "type": "uint256"
        }
      ],
      "stateMutability": "view",
      "type": "function",
      "constant": true
    },
    {
      "inputs": [
        {
          "internalType": "address",
          "name": "from",
          "type": "address"
        },
        {
          "internalType": "address",
          "name": "to",
          "type": "address"
        },
        {
          "internalType": "uint256",
          "name": "tokenId",
          "type": "uint256"
        }
      ],
      "name": "transferFrom",
      "outputs": [],
      "stateMutability": "nonpayable",
      "type": "function"
    },
    {
      "inputs": [
        {
          "internalType": "address",
          "name": "newOwner",
          "type": "address"
        }
      ],
      "name": "transferOwnership",
      "outputs": [],
      "stateMutability": "nonpayable",
      "type": "function"
    },
    {
      "inputs": [
        {
          "internalType": "string",
          "name": "tokenURI",
          "type": "string"
        }
      ],
      "name": "createSharedEV",
      "outputs": [
        {
          "internalType": "uint256",
          "name": "",
          "type": "uint256"
        }
      ],
      "stateMutability": "nonpayable",
      "type": "function"
    },
    {
      "inputs": [
        {
          "internalType": "address",
          "name": "customer",
          "type": "address"
        },
        {
          "internalType": "uint256",
          "name": "tokenId",
          "type": "uint256"
        }
      ],
      "name": "checkOut",
      "outputs": [],
      "stateMutability": "nonpayable",
      "type": "function"
    },
    {
      "inputs": [
        {
          "internalType": "uint256",
          "name": "tokenId",
          "type": "uint256"
        }
      ],
      "name": "checkIn",
      "outputs": [],
      "stateMutability": "nonpayable",
      "type": "function"
    },
    {
      "inputs": [],
      "name": "getEVInfo",
      "outputs": [
        {
          "components": [
            {
              "internalType": "uint256",
              "name": "tokenId",
              "type": "uint256"
            },
            {
              "internalType": "string",
              "name": "description",
              "type": "string"
            },
            {
              "internalType": "string",
              "name": "tokenURI",
              "type": "string"
            },
            {
              "internalType": "uint256",
              "name": "checkOutDate",
              "type": "uint256"
            },
            {
              "internalType": "address",
              "name": "customer",
              "type": "address"
            }
          ],
          "internalType": "struct SharedEV.SharedEV[]",
          "name": "",
          "type": "tuple[]"
        }
      ],
      "stateMutability": "view",
      "type": "function",
      "constant": true
    }
  ],
  "bytecode": "0x60806040523480156200001157600080fd5b506040518060400160405280600881526020017f53686172656445560000000000000000000000000000000000000000000000008152506040518060400160405280600381526020017f5345560000000000000000000000000000000000000000000000000000000000815250600062000090620001c860201b60201c565b9050806000806101000a81548173ffffffffffffffffffffffffffffffffffffffff021916908373ffffffffffffffffffffffffffffffffffffffff1602179055508073ffffffffffffffffffffffffffffffffffffffff16600073ffffffffffffffffffffffffffffffffffffffff167f8be0079c531659141344cd1fd0a4f28419497f9722a3daafe3b4186f6b6457e060405160405180910390a350620001466301ffc9a760e01b620001d060201b60201c565b81600790805190602001906200015e929190620002d9565b50806008908051906020019062000177929190620002d9565b50620001906380ac58cd60e01b620001d060201b60201c565b620001a8635b5e139f60e01b620001d060201b60201c565b620001c063780e9d6360e01b620001d060201b60201c565b50506200038f565b600033905090565b63ffffffff60e01b817bffffffffffffffffffffffffffffffffffffffffffffffffffffffff191614156200026d576040517f08c379a000000000000000000000000000000000000000000000000000000000815260040180806020018281038252601c8152602001807f4552433136353a20696e76616c696420696e746572666163652069640000000081525060200191505060405180910390fd5b6001806000837bffffffffffffffffffffffffffffffffffffffffffffffffffffffff19167bffffffffffffffffffffffffffffffffffffffffffffffffffffffff1916815260200190815260200160002060006101000a81548160ff02191690831515021790555050565b828054600181600116156101000203166002900490600052602060002090601f0160209004810192826200031157600085556200035d565b82601f106200032c57805160ff19168380011785556200035d565b828001600101855582156200035d579182015b828111156200035c5782518255916020019190600101906200033f565b5b5090506200036c919062000370565b5090565b5b808211156200038b57600081600090555060010162000371565b5090565b613f97806200039f6000396000f3fe608060405234801561001057600080fd5b50600436106101735760003560e01c806370a08231116100de578063c87b56dd11610097578063e95a644f11610071578063e95a644f14610474578063e985e9c514610490578063ea8c15d1146104c0578063f2fde38b146104de57610173565b8063c87b56dd146103f4578063d82da66714610424578063df4799f31461045857610173565b806370a0823114610346578063715018a6146103765780638da5cb5b1461038057806395d89b411461039e578063a22cb465146103bc578063b88d4fde146103d857610173565b806323b872dd1161013057806323b872dd146102605780632f745c591461027c57806342842e0e146102ac5780634f6ccce7146102c85780636352211e146102f85780636c0360eb1461032857610173565b806301ffc9a71461017857806306fdde03146101a8578063081812fc146101c6578063095ea7b3146101f657806313ff553a1461021257806318160ddd14610242575b600080fd5b610192600480360381019061018d919061353b565b6104fa565b60405161019f9190613957565b60405180910390f35b6101b0610562565b6040516101bd9190613972565b60405180910390f35b6101e060048036038101906101db91906135a5565b610604565b6040516101ed9190613860565b60405180910390f35b610210600480360381019061020b91906134ff565b61069f565b005b61022c60048036038101906102279190613564565b6107e3565b60405161023991906139f4565b60405180910390f35b61024a610a45565b60405161025791906139f4565b60405180910390f35b61027a600480360381019061027591906133f9565b610a56565b005b610296600480360381019061029191906134ff565b610acc565b6040516102a391906139f4565b60405180910390f35b6102c660048036038101906102c191906133f9565b610b27565b005b6102e260048036038101906102dd91906135a5565b610b47565b6040516102ef91906139f4565b60405180910390f35b610312600480360381019061030d91906135a5565b610b6a565b60405161031f9190613860565b60405180910390f35b610330610ba1565b60405161033d9190613972565b60405180910390f35b610360600480360381019061035b9190613394565b610c43565b60405161036d91906139f4565b60405180910390f35b61037e610d18565b005b610388610e85565b6040516103959190613860565b60405180910390f35b6103a6610eae565b6040516103b39190613972565b60405180910390f35b6103d660048036038101906103d191906134c3565b610f50565b005b6103f260048036038101906103ed9190613448565b611106565b005b61040e600480360381019061040991906135a5565b61117e565b60405161041b9190613972565b60405180910390f35b61043e600480360381019061043991906135a5565b61144f565b60405161044f959493929190613a0f565b60405180910390f35b610472600480360381019061046d91906134ff565b6115d5565b005b61048e600480360381019061048991906135a5565b611860565b005b6104aa60048036038101906104a591906133bd565b61199e565b6040516104b79190613957565b60405180910390f35b6104c8611a32565b6040516104d59190613935565b60405180910390f35b6104f860048036038101906104f39190613394565b611ca1565b005b600060016000837bffffffffffffffffffffffffffffffffffffffffffffffffffffffff19167bffffffffffffffffffffffffffffffffffffffffffffffffffffffff1916815260200190815260200160002060009054906101000a900460ff169050919050565b606060078054600181600116156101000203166002900480601f0160208091040260200160405190810160405280929190818152602001828054600181600116156101000203166002900480156105fa5780601f106105cf576101008083540402835291602001916105fa565b820191906000526020600020905b8154815290600101906020018083116105dd57829003601f168201915b5050505050905090565b600061060f82611e93565b610664576040517f08c379a000000000000000000000000000000000000000000000000000000000815260040180806020018281038252602c815260200180613e60602c913960400191505060405180910390fd5b6005600083815260200190815260200160002060009054906101000a900473ffffffffffffffffffffffffffffffffffffffff169050919050565b60006106aa82610b6a565b90508073ffffffffffffffffffffffffffffffffffffffff168373ffffffffffffffffffffffffffffffffffffffff161415610731576040517f08c379a0000000000000000000000000000000000000000000000000000000008152600401808060200182810382526021815260200180613f106021913960400191505060405180910390fd5b8073ffffffffffffffffffffffffffffffffffffffff16610750611eb0565b73ffffffffffffffffffffffffffffffffffffffff16148061077f575061077e81610779611eb0565b61199e565b5b6107d4576040517f08c379a0000000000000000000000000000000000000000000000000000000008152600401808060200182810382526038815260200180613db36038913960400191505060405180910390fd5b6107de8383611eb8565b505050565b60006107ed611eb0565b73ffffffffffffffffffffffffffffffffffffffff1661080b610e85565b73ffffffffffffffffffffffffffffffffffffffff1614610894576040517f08c379a00000000000000000000000000000000000000000000000000000000081526004018080602001828103825260208152602001807f4f776e61626c653a2063616c6c6572206973206e6f7420746865206f776e657281525060200191505060405180910390fd5b61089e600b611f71565b60006108aa600b611f87565b90506108bd6108b7610e85565b82611f95565b6108c78184612189565b6108cf613180565b6040518060a001604052808381526020016040518060400160405280600a81526020017f476f6f676c652043617200000000000000000000000000000000000000000000815250815260200185815260200160008152602001610930610e85565b73ffffffffffffffffffffffffffffffffffffffff16815250905080600c60008481526020019081526020016000206000820151816000015560208201518160010190805190602001906109859291906131c5565b5060408201518160020190805190602001906109a29291906131c5565b506060820151816003015560808201518160040160006101000a81548173ffffffffffffffffffffffffffffffffffffffff021916908373ffffffffffffffffffffffffffffffffffffffff1602179055509050507f3662ba99b793b274034e4eb206a45cd6c80ad7d0b922548443cdcb7d50d2b997610a20610e85565b838642604051610a3394939291906138b2565b60405180910390a18192505050919050565b6000610a516003612213565b905090565b610a67610a61611eb0565b82612228565b610abc576040517f08c379a0000000000000000000000000000000000000000000000000000000008152600401808060200182810382526031815260200180613f316031913960400191505060405180910390fd5b610ac783838361231c565b505050565b6000610b1f82600260008673ffffffffffffffffffffffffffffffffffffffff1673ffffffffffffffffffffffffffffffffffffffff16815260200190815260200160002061255f90919063ffffffff16565b905092915050565b610b4283838360405180602001604052806000815250611106565b505050565b600080610b5e83600361257990919063ffffffff16565b50905080915050919050565b6000610b9a82604051806060016040528060298152602001613e156029913960036125a59092919063ffffffff16565b9050919050565b6060600a8054600181600116156101000203166002900480601f016020809104026020016040519081016040528092919081815260200182805460018160011615610100020316600290048015610c395780601f10610c0e57610100808354040283529160200191610c39565b820191906000526020600020905b815481529060010190602001808311610c1c57829003601f168201915b5050505050905090565b60008073ffffffffffffffffffffffffffffffffffffffff168273ffffffffffffffffffffffffffffffffffffffff161415610cca576040517f08c379a000000000000000000000000000000000000000000000000000000000815260040180806020018281038252602a815260200180613deb602a913960400191505060405180910390fd5b610d11600260008473ffffffffffffffffffffffffffffffffffffffff1673ffffffffffffffffffffffffffffffffffffffff1681526020019081526020016000206125c4565b9050919050565b610d20611eb0565b73ffffffffffffffffffffffffffffffffffffffff16610d3e610e85565b73ffffffffffffffffffffffffffffffffffffffff1614610dc7576040517f08c379a00000000000000000000000000000000000000000000000000000000081526004018080602001828103825260208152602001807f4f776e61626c653a2063616c6c6572206973206e6f7420746865206f776e657281525060200191505060405180910390fd5b600073ffffffffffffffffffffffffffffffffffffffff1660008054906101000a900473ffffffffffffffffffffffffffffffffffffffff1673ffffffffffffffffffffffffffffffffffffffff167f8be0079c531659141344cd1fd0a4f28419497f9722a3daafe3b4186f6b6457e060405160405180910390a360008060006101000a81548173ffffffffffffffffffffffffffffffffffffffff021916908373ffffffffffffffffffffffffffffffffffffffff160217905550565b60008060009054906101000a900473ffffffffffffffffffffffffffffffffffffffff16905090565b606060088054600181600116156101000203166002900480601f016020809104026020016040519081016040528092919081815260200182805460018160011615610100020316600290048015610f465780601f10610f1b57610100808354040283529160200191610f46565b820191906000526020600020905b815481529060010190602001808311610f2957829003601f168201915b5050505050905090565b610f58611eb0565b73ffffffffffffffffffffffffffffffffffffffff168273ffffffffffffffffffffffffffffffffffffffff161415610ff9576040517f08c379a00000000000000000000000000000000000000000000000000000000081526004018080602001828103825260198152602001807f4552433732313a20617070726f766520746f2063616c6c65720000000000000081525060200191505060405180910390fd5b8060066000611006611eb0565b73ffffffffffffffffffffffffffffffffffffffff1673ffffffffffffffffffffffffffffffffffffffff16815260200190815260200160002060008473ffffffffffffffffffffffffffffffffffffffff1673ffffffffffffffffffffffffffffffffffffffff16815260200190815260200160002060006101000a81548160ff0219169083151502179055508173ffffffffffffffffffffffffffffffffffffffff166110b3611eb0565b73ffffffffffffffffffffffffffffffffffffffff167f17307eab39ab6107e8899845ad3d59bd9653f200f220920489ca2b5937696c318360405180821515815260200191505060405180910390a35050565b611117611111611eb0565b83612228565b61116c576040517f08c379a0000000000000000000000000000000000000000000000000000000008152600401808060200182810382526031815260200180613f316031913960400191505060405180910390fd5b611178848484846125d9565b50505050565b606061118982611e93565b6111de576040517f08c379a000000000000000000000000000000000000000000000000000000000815260040180806020018281038252602f815260200180613ee1602f913960400191505060405180910390fd5b6000600960008481526020019081526020016000208054600181600116156101000203166002900480601f0160208091040260200160405190810160405280929190818152602001828054600181600116156101000203166002900480156112875780601f1061125c57610100808354040283529160200191611287565b820191906000526020600020905b81548152906001019060200180831161126a57829003601f168201915b505050505090506000611298610ba1565b90506000815114156112ae57819250505061144a565b60008251111561137f5780826040516020018083805190602001908083835b602083106112f057805182526020820191506020810190506020830392506112cd565b6001836020036101000a03801982511681845116808217855250505050505090500182805190602001908083835b60208310611341578051825260208201915060208101905060208303925061131e565b6001836020036101000a038019825116818451168082178552505050505050905001925050506040516020818303038152906040529250505061144a565b806113898561264b565b6040516020018083805190602001908083835b602083106113bf578051825260208201915060208101905060208303925061139c565b6001836020036101000a03801982511681845116808217855250505050505090500182805190602001908083835b6020831061141057805182526020820191506020810190506020830392506113ed565b6001836020036101000a03801982511681845116808217855250505050505090500192505050604051602081830303815290604052925050505b919050565b600c602052806000526040600020600091509050806000015490806001018054600181600116156101000203166002900480601f0160208091040260200160405190810160405280929190818152602001828054600181600116156101000203166002900480156115015780601f106114d657610100808354040283529160200191611501565b820191906000526020600020905b8154815290600101906020018083116114e457829003601f168201915b505050505090806002018054600181600116156101000203166002900480601f01602080910402602001604051908101604052809291908181526020018280546001816001161561010002031660029004801561159f5780601f106115745761010080835404028352916020019161159f565b820191906000526020600020905b81548152906001019060200180831161158257829003601f168201915b5050505050908060030154908060040160009054906101000a900473ffffffffffffffffffffffffffffffffffffffff16905085565b6115dd611eb0565b73ffffffffffffffffffffffffffffffffffffffff166115fb610e85565b73ffffffffffffffffffffffffffffffffffffffff1614611684576040517f08c379a00000000000000000000000000000000000000000000000000000000081526004018080602001828103825260208152602001807f4f776e61626c653a2063616c6c6572206973206e6f7420746865206f776e657281525060200191505060405180910390fd5b6000600c600083815260200190815260200160002060030154146116dd576040517f08c379a00000000000000000000000000000000000000000000000000000000081526004016116d490613994565b60405180910390fd5b60006116e883610c43565b14611728576040517f08c379a000000000000000000000000000000000000000000000000000000000815260040161171f906139d4565b60405180910390fd5b3373ffffffffffffffffffffffffffffffffffffffff1661174882610b6a565b73ffffffffffffffffffffffffffffffffffffffff161461179e576040517f08c379a0000000000000000000000000000000000000000000000000000000008152600401611795906139b4565b60405180910390fd5b6117b16117aa82610b6a565b8383610b27565b42600c60008381526020019081526020016000206003018190555081600c600083815260200190815260200160002060040160006101000a81548173ffffffffffffffffffffffffffffffffffffffff021916908373ffffffffffffffffffffffffffffffffffffffff1602179055507fd62d2dce59b7c1a71bef89b301e5facbbedba228dc05ea37edafd5adab6c1aab828242604051611854939291906138fe565b60405180910390a15050565b3373ffffffffffffffffffffffffffffffffffffffff1661188082610b6a565b73ffffffffffffffffffffffffffffffffffffffff16146118d6576040517f08c379a00000000000000000000000000000000000000000000000000000000081526004016118cd906139b4565b60405180910390fd5b6118e8336118e2610e85565b83610b27565b6000600c60008381526020019081526020016000206003018190555061190c610e85565b600c600083815260200190815260200160002060040160006101000a81548173ffffffffffffffffffffffffffffffffffffffff021916908373ffffffffffffffffffffffffffffffffffffffff1602179055507fa96182fb4594075f7d13f4665d2f1b798273b8e821eeda6664679f01f7fb0bbd3382426040516119939392919061387b565b60405180910390a150565b6000600660008473ffffffffffffffffffffffffffffffffffffffff1673ffffffffffffffffffffffffffffffffffffffff16815260200190815260200160002060008373ffffffffffffffffffffffffffffffffffffffff1673ffffffffffffffffffffffffffffffffffffffff16815260200190815260200160002060009054906101000a900460ff16905092915050565b60606000611a3e610a45565b67ffffffffffffffff81118015611a5457600080fd5b50604051908082528060200260200182016040528015611a8e57816020015b611a7b613180565b815260200190600190039081611a735790505b5090506000600190505b611aa0610a45565b8111611c9957600c60008281526020019081526020016000206040518060a001604052908160008201548152602001600182018054600181600116156101000203166002900480601f016020809104026020016040519081016040528092919081815260200182805460018160011615610100020316600290048015611b675780601f10611b3c57610100808354040283529160200191611b67565b820191906000526020600020905b815481529060010190602001808311611b4a57829003601f168201915b50505050508152602001600282018054600181600116156101000203166002900480601f016020809104026020016040519081016040528092919081815260200182805460018160011615610100020316600290048015611c095780601f10611bde57610100808354040283529160200191611c09565b820191906000526020600020905b815481529060010190602001808311611bec57829003601f168201915b50505050508152602001600382015481526020016004820160009054906101000a900473ffffffffffffffffffffffffffffffffffffffff1673ffffffffffffffffffffffffffffffffffffffff1673ffffffffffffffffffffffffffffffffffffffff1681525050826001830381518110611c8157fe5b60200260200101819052508080600101915050611a98565b508091505090565b611ca9611eb0565b73ffffffffffffffffffffffffffffffffffffffff16611cc7610e85565b73ffffffffffffffffffffffffffffffffffffffff1614611d50576040517f08c379a00000000000000000000000000000000000000000000000000000000081526004018080602001828103825260208152602001807f4f776e61626c653a2063616c6c6572206973206e6f7420746865206f776e657281525060200191505060405180910390fd5b600073ffffffffffffffffffffffffffffffffffffffff168173ffffffffffffffffffffffffffffffffffffffff161415611dd6576040517f08c379a0000000000000000000000000000000000000000000000000000000008152600401808060200182810382526026815260200180613d176026913960400191505060405180910390fd5b8073ffffffffffffffffffffffffffffffffffffffff1660008054906101000a900473ffffffffffffffffffffffffffffffffffffffff1673ffffffffffffffffffffffffffffffffffffffff167f8be0079c531659141344cd1fd0a4f28419497f9722a3daafe3b4186f6b6457e060405160405180910390a3806000806101000a81548173ffffffffffffffffffffffffffffffffffffffff021916908373ffffffffffffffffffffffffffffffffffffffff16021790555050565b6000611ea982600361279290919063ffffffff16565b9050919050565b600033905090565b816005600083815260200190815260200160002060006101000a81548173ffffffffffffffffffffffffffffffffffffffff021916908373ffffffffffffffffffffffffffffffffffffffff160217905550808273ffffffffffffffffffffffffffffffffffffffff16611f2b83610b6a565b73ffffffffffffffffffffffffffffffffffffffff167f8c5be1e5ebec7d5bd14f71427d1e84f3dd0314c0f7b2291e5b200ac8c7c3b92560405160405180910390a45050565b6001816000016000828254019250508190555050565b600081600001549050919050565b600073ffffffffffffffffffffffffffffffffffffffff168273ffffffffffffffffffffffffffffffffffffffff161415612038576040517f08c379a00000000000000000000000000000000000000000000000000000000081526004018080602001828103825260208152602001807f4552433732313a206d696e7420746f20746865207a65726f206164647265737381525060200191505060405180910390fd5b61204181611e93565b156120b4576040517f08c379a000000000000000000000000000000000000000000000000000000000815260040180806020018281038252601c8152602001807f4552433732313a20746f6b656e20616c7265616479206d696e7465640000000081525060200191505060405180910390fd5b6120c0600083836127ac565b61211181600260008573ffffffffffffffffffffffffffffffffffffffff1673ffffffffffffffffffffffffffffffffffffffff1681526020019081526020016000206127b190919063ffffffff16565b50612128818360036127cb9092919063ffffffff16565b50808273ffffffffffffffffffffffffffffffffffffffff16600073ffffffffffffffffffffffffffffffffffffffff167fddf252ad1be2c89b69c2b068fc378daa952ba7f163c4a11628f55a4df523b3ef60405160405180910390a45050565b61219282611e93565b6121e7576040517f08c379a000000000000000000000000000000000000000000000000000000000815260040180806020018281038252602c815260200180613e8c602c913960400191505060405180910390fd5b8060096000848152602001908152602001600020908051906020019061220e9291906131c5565b505050565b600061222182600001612800565b9050919050565b600061223382611e93565b612288576040517f08c379a000000000000000000000000000000000000000000000000000000000815260040180806020018281038252602c815260200180613d87602c913960400191505060405180910390fd5b600061229383610b6a565b90508073ffffffffffffffffffffffffffffffffffffffff168473ffffffffffffffffffffffffffffffffffffffff16148061230257508373ffffffffffffffffffffffffffffffffffffffff166122ea84610604565b73ffffffffffffffffffffffffffffffffffffffff16145b806123135750612312818561199e565b5b91505092915050565b8273ffffffffffffffffffffffffffffffffffffffff1661233c82610b6a565b73ffffffffffffffffffffffffffffffffffffffff16146123a8576040517f08c379a0000000000000000000000000000000000000000000000000000000008152600401808060200182810382526029815260200180613eb86029913960400191505060405180910390fd5b600073ffffffffffffffffffffffffffffffffffffffff168273ffffffffffffffffffffffffffffffffffffffff16141561242e576040517f08c379a0000000000000000000000000000000000000000000000000000000008152600401808060200182810382526024815260200180613d3d6024913960400191505060405180910390fd5b6124398383836127ac565b612444600082611eb8565b61249581600260008673ffffffffffffffffffffffffffffffffffffffff1673ffffffffffffffffffffffffffffffffffffffff16815260200190815260200160002061281190919063ffffffff16565b506124e781600260008573ffffffffffffffffffffffffffffffffffffffff1673ffffffffffffffffffffffffffffffffffffffff1681526020019081526020016000206127b190919063ffffffff16565b506124fe818360036127cb9092919063ffffffff16565b50808273ffffffffffffffffffffffffffffffffffffffff168473ffffffffffffffffffffffffffffffffffffffff167fddf252ad1be2c89b69c2b068fc378daa952ba7f163c4a11628f55a4df523b3ef60405160405180910390a4505050565b600061256e836000018361282b565b60001c905092915050565b60008060008061258c86600001866128ae565b915091508160001c8160001c9350935050509250929050565b60006125b8846000018460001b84612947565b60001c90509392505050565b60006125d282600001612a3d565b9050919050565b6125e484848461231c565b6125f084848484612a4e565b612645576040517f08c379a0000000000000000000000000000000000000000000000000000000008152600401808060200182810382526032815260200180613ce56032913960400191505060405180910390fd5b50505050565b60606000821415612693576040518060400160405280600181526020017f3000000000000000000000000000000000000000000000000000000000000000815250905061278d565b600082905060005b600082146126bd578080600101915050600a82816126b557fe5b04915061269b565b60008167ffffffffffffffff811180156126d657600080fd5b506040519080825280601f01601f1916602001820160405280156127095781602001600182028036833780820191505090505b50905060006001830390508593505b6000841461278557600a848161272a57fe5b0660300160f81b8282806001900393508151811061274457fe5b60200101907effffffffffffffffffffffffffffffffffffffffffffffffffffffffffffff1916908160001a905350600a848161277d57fe5b049350612718565b819450505050505b919050565b60006127a4836000018360001b612c67565b905092915050565b505050565b60006127c3836000018360001b612c8a565b905092915050565b60006127f7846000018460001b8473ffffffffffffffffffffffffffffffffffffffff1660001b612cfa565b90509392505050565b600081600001805490509050919050565b6000612823836000018360001b612dd6565b905092915050565b60008183600001805490501161288c576040517f08c379a0000000000000000000000000000000000000000000000000000000008152600401808060200182810382526022815260200180613cc36022913960400191505060405180910390fd5b82600001828154811061289b57fe5b9060005260206000200154905092915050565b60008082846000018054905011612910576040517f08c379a0000000000000000000000000000000000000000000000000000000008152600401808060200182810382526022815260200180613e3e6022913960400191505060405180910390fd5b600084600001848154811061292157fe5b906000526020600020906002020190508060000154816001015492509250509250929050565b60008084600101600085815260200190815260200160002054905060008114158390612a0e576040517f08c379a00000000000000000000000000000000000000000000000000000000081526004018080602001828103825283818151815260200191508051906020019080838360005b838110156129d35780820151818401526020810190506129b8565b50505050905090810190601f168015612a005780820380516001836020036101000a031916815260200191505b509250505060405180910390fd5b50846000016001820381548110612a2157fe5b9060005260206000209060020201600101549150509392505050565b600081600001805490509050919050565b6000612a6f8473ffffffffffffffffffffffffffffffffffffffff16612ebe565b612a7c5760019050612c5f565b6000612be663150b7a0260e01b612a91611eb0565b888787604051602401808573ffffffffffffffffffffffffffffffffffffffff1681526020018473ffffffffffffffffffffffffffffffffffffffff16815260200183815260200180602001828103825283818151815260200191508051906020019080838360005b83811015612b15578082015181840152602081019050612afa565b50505050905090810190601f168015612b425780820380516001836020036101000a031916815260200191505b5095505050505050604051602081830303815290604052907bffffffffffffffffffffffffffffffffffffffffffffffffffffffff19166020820180517bffffffffffffffffffffffffffffffffffffffffffffffffffffffff8381831617835250505050604051806060016040528060328152602001613ce5603291398773ffffffffffffffffffffffffffffffffffffffff16612ed19092919063ffffffff16565b90506000818060200190516020811015612bff57600080fd5b8101908080519060200190929190505050905063150b7a0260e01b7bffffffffffffffffffffffffffffffffffffffffffffffffffffffff1916817bffffffffffffffffffffffffffffffffffffffffffffffffffffffff191614925050505b949350505050565b600080836001016000848152602001908152602001600020541415905092915050565b6000612c968383612ee9565b612cef578260000182908060018154018082558091505060019003906000526020600020016000909190919091505582600001805490508360010160008481526020019081526020016000208190555060019050612cf4565b600090505b92915050565b6000808460010160008581526020019081526020016000205490506000811415612da157846000016040518060400160405280868152602001858152509080600181540180825580915050600190039060005260206000209060020201600090919091909150600082015181600001556020820151816001015550508460000180549050856001016000868152602001908152602001600020819055506001915050612dcf565b82856000016001830381548110612db457fe5b90600052602060002090600202016001018190555060009150505b9392505050565b60008083600101600084815260200190815260200160002054905060008114612eb25760006001820390506000600186600001805490500390506000866000018281548110612e2157fe5b9060005260206000200154905080876000018481548110612e3e57fe5b9060005260206000200181905550600183018760010160008381526020019081526020016000208190555086600001805480612e7657fe5b60019003818190600052602060002001600090559055866001016000878152602001908152602001600020600090556001945050505050612eb8565b60009150505b92915050565b600080823b905060008111915050919050565b6060612ee08484600085612f0c565b90509392505050565b600080836001016000848152602001908152602001600020541415905092915050565b606082471015612f67576040517f08c379a0000000000000000000000000000000000000000000000000000000008152600401808060200182810382526026815260200180613d616026913960400191505060405180910390fd5b612f7085612ebe565b612fe2576040517f08c379a000000000000000000000000000000000000000000000000000000000815260040180806020018281038252601d8152602001807f416464726573733a2063616c6c20746f206e6f6e2d636f6e747261637400000081525060200191505060405180910390fd5b6000808673ffffffffffffffffffffffffffffffffffffffff1685876040518082805190602001908083835b60208310613031578051825260208201915060208101905060208303925061300e565b6001836020036101000a03801982511681845116808217855250505050505090500191505060006040518083038185875af1925050503d8060008114613093576040519150601f19603f3d011682016040523d82523d6000602084013e613098565b606091505b50915091506130a88282866130b4565b92505050949350505050565b606083156130c457829050613179565b6000835111156130d75782518084602001fd5b816040517f08c379a00000000000000000000000000000000000000000000000000000000081526004018080602001828103825283818151815260200191508051906020019080838360005b8381101561313e578082015181840152602081019050613123565b50505050905090810190601f16801561316b5780820380516001836020036101000a031916815260200191505b509250505060405180910390fd5b9392505050565b6040518060a0016040528060008152602001606081526020016060815260200160008152602001600073ffffffffffffffffffffffffffffffffffffffff1681525090565b828054600181600116156101000203166002900490600052602060002090601f0160209004810192826131fb5760008555613242565b82601f1061321457805160ff1916838001178555613242565b82800160010185558215613242579182015b82811115613241578251825591602001919060010190613226565b5b50905061324f9190613253565b5090565b5b8082111561326c576000816000905550600101613254565b5090565b600061328361327e84613aa1565b613a70565b90508281526020810184848401111561329b57600080fd5b6132a6848285613c11565b509392505050565b60006132c16132bc84613ad1565b613a70565b9050828152602081018484840111156132d957600080fd5b6132e4848285613c11565b509392505050565b6000813590506132fb81613c66565b92915050565b60008135905061331081613c7d565b92915050565b60008135905061332581613c94565b92915050565b600082601f83011261333c57600080fd5b813561334c848260208601613270565b91505092915050565b600082601f83011261336657600080fd5b81356133768482602086016132ae565b91505092915050565b60008135905061338e81613cab565b92915050565b6000602082840312156133a657600080fd5b60006133b4848285016132ec565b91505092915050565b600080604083850312156133d057600080fd5b60006133de858286016132ec565b92505060206133ef858286016132ec565b9150509250929050565b60008060006060848603121561340e57600080fd5b600061341c868287016132ec565b935050602061342d868287016132ec565b925050604061343e8682870161337f565b9150509250925092565b6000806000806080858703121561345e57600080fd5b600061346c878288016132ec565b945050602061347d878288016132ec565b935050604061348e8782880161337f565b925050606085013567ffffffffffffffff8111156134ab57600080fd5b6134b78782880161332b565b91505092959194509250565b600080604083850312156134d657600080fd5b60006134e4858286016132ec565b92505060206134f585828601613301565b9150509250929050565b6000806040838503121561351257600080fd5b6000613520858286016132ec565b92505060206135318582860161337f565b9150509250929050565b60006020828403121561354d57600080fd5b600061355b84828501613316565b91505092915050565b60006020828403121561357657600080fd5b600082013567ffffffffffffffff81111561359057600080fd5b61359c84828501613355565b91505092915050565b6000602082840312156135b757600080fd5b60006135c58482850161337f565b91505092915050565b60006135da83836137c5565b905092915050565b6135eb81613bdb565b82525050565b6135fa81613b67565b82525050565b61360981613b67565b82525050565b600061361a82613b11565b6136248185613b34565b93508360208202850161363685613b01565b8060005b85811015613672578484038952815161365385826135ce565b945061365e83613b27565b925060208a0199505060018101905061363a565b50829750879550505050505092915050565b61368d81613b79565b82525050565b600061369e82613b1c565b6136a88185613b45565b93506136b8818560208601613c20565b6136c181613c55565b840191505092915050565b60006136d782613b1c565b6136e18185613b56565b93506136f1818560208601613c20565b6136fa81613c55565b840191505092915050565b6000613712600d83613b56565b91507f4e6f7420417661696c61626c65000000000000000000000000000000000000006000830152602082019050919050565b6000613752600983613b56565b91507f4e6f74204f776e657200000000000000000000000000000000000000000000006000830152602082019050919050565b6000613792601983613b56565b91507f457863656564204d617820436865636b6f7574204c696d6974000000000000006000830152602082019050919050565b600060a0830160008301516137dd6000860182613842565b50602083015184820360208601526137f58282613693565b9150506040830151848203604086015261380f8282613693565b91505060608301516138246060860182613842565b50608083015161383760808601826135f1565b508091505092915050565b61384b81613bd1565b82525050565b61385a81613bd1565b82525050565b60006020820190506138756000830184613600565b92915050565b600060608201905061389060008301866135e2565b61389d6020830185613851565b6138aa6040830184613851565b949350505050565b60006080820190506138c76000830187613600565b6138d46020830186613851565b81810360408301526138e681856136cc565b90506138f56060830184613851565b95945050505050565b60006060820190506139136000830186613600565b6139206020830185613851565b61392d6040830184613851565b949350505050565b6000602082019050818103600083015261394f818461360f565b905092915050565b600060208201905061396c6000830184613684565b92915050565b6000602082019050818103600083015261398c81846136cc565b905092915050565b600060208201905081810360008301526139ad81613705565b9050919050565b600060208201905081810360008301526139cd81613745565b9050919050565b600060208201905081810360008301526139ed81613785565b9050919050565b6000602082019050613a096000830184613851565b92915050565b600060a082019050613a246000830188613851565b8181036020830152613a3681876136cc565b90508181036040830152613a4a81866136cc565b9050613a596060830185613851565b613a666080830184613600565b9695505050505050565b6000604051905081810181811067ffffffffffffffff82111715613a9757613a96613c53565b5b8060405250919050565b600067ffffffffffffffff821115613abc57613abb613c53565b5b601f19601f8301169050602081019050919050565b600067ffffffffffffffff821115613aec57613aeb613c53565b5b601f19601f8301169050602081019050919050565b6000819050602082019050919050565b600081519050919050565b600081519050919050565b6000602082019050919050565b600082825260208201905092915050565b600082825260208201905092915050565b600082825260208201905092915050565b6000613b7282613bb1565b9050919050565b60008115159050919050565b60007fffffffff0000000000000000000000000000000000000000000000000000000082169050919050565b600073ffffffffffffffffffffffffffffffffffffffff82169050919050565b6000819050919050565b6000613be682613bed565b9050919050565b6000613bf882613bff565b9050919050565b6000613c0a82613bb1565b9050919050565b82818337600083830152505050565b60005b83811015613c3e578082015181840152602081019050613c23565b83811115613c4d576000848401525b50505050565bfe5b6000601f19601f8301169050919050565b613c6f81613b67565b8114613c7a57600080fd5b50565b613c8681613b79565b8114613c9157600080fd5b50565b613c9d81613b85565b8114613ca857600080fd5b50565b613cb481613bd1565b8114613cbf57600080fd5b5056fe456e756d657261626c655365743a20696e646578206f7574206f6620626f756e64734552433732313a207472616e7366657220746f206e6f6e20455243373231526563656976657220696d706c656d656e7465724f776e61626c653a206e6577206f776e657220697320746865207a65726f20616464726573734552433732313a207472616e7366657220746f20746865207a65726f2061646472657373416464726573733a20696e73756666696369656e742062616c616e636520666f722063616c6c4552433732313a206f70657261746f7220717565727920666f72206e6f6e6578697374656e7420746f6b656e4552433732313a20617070726f76652063616c6c6572206973206e6f74206f776e6572206e6f7220617070726f76656420666f7220616c6c4552433732313a2062616c616e636520717565727920666f7220746865207a65726f20616464726573734552433732313a206f776e657220717565727920666f72206e6f6e6578697374656e7420746f6b656e456e756d657261626c654d61703a20696e646578206f7574206f6620626f756e64734552433732313a20617070726f76656420717565727920666f72206e6f6e6578697374656e7420746f6b656e4552433732314d657461646174613a2055524920736574206f66206e6f6e6578697374656e7420746f6b656e4552433732313a207472616e73666572206f6620746f6b656e2074686174206973206e6f74206f776e4552433732314d657461646174613a2055524920717565727920666f72206e6f6e6578697374656e7420746f6b656e4552433732313a20617070726f76616c20746f2063757272656e74206f776e65724552433732313a207472616e736665722063616c6c6572206973206e6f74206f776e6572206e6f7220617070726f766564a26469706673582212200b4ad31fa832b765581fa0c8139342b5082ec6fe4cf5ac81310ec68ab0d158ea64736f6c63430007060033",
  "immutableReferences": {},
  "source": "// contracts/SharedEV.sol\n// SPDX-License-Identifier: MIT\npragma solidity ^0.7.4;\npragma experimental ABIEncoderV2;\n\nimport \"@openzeppelin/contracts/token/ERC721/ERC721.sol\";\nimport \"@openzeppelin/contracts/utils/Counters.sol\";\n\n// Import Ownable from the OpenZeppelin Contracts library\nimport \"@openzeppelin/contracts/access/Ownable.sol\";\n\ncontract SharedEV is Ownable, ERC721 {\n    using Counters for Counters.Counter;\n    Counters.Counter private _tokenIds;\n\n    struct SharedEV { \n        uint256 tokenId;\n        string description;\n        string tokenURI;\n        uint256 checkOutDate;  // 0 - Available\n        address customer;\n    }\n    \n    mapping (uint256 => SharedEV) public sharedEVs;\n\n    event createSharedEVEvent(address customer, uint256 tokenId, string tokenURI, uint256 blockTimeStamp);\n    event checkOutEvent(address customer, uint256 tokenId, uint256 blockTimeStamp);\n    event checkInEvent(address customer, uint256 tokenId, uint256 blockTimeStamp);\n\n    constructor() public ERC721(\"SharedEV\", \"SEV\") {}\n\n    function createSharedEV(string memory tokenURI) public onlyOwner returns (uint256) {\n        _tokenIds.increment();\n\n        uint256 newTokenId = _tokenIds.current();\n        _mint(owner(), newTokenId);\n        _setTokenURI(newTokenId, tokenURI);\n\n        SharedEV memory newItem;\n        newItem = SharedEV(newTokenId,\"Google Car\",tokenURI,0,owner());\n        sharedEVs[newTokenId] = newItem;\n        \n        emit createSharedEVEvent(owner(), newTokenId, tokenURI, block.timestamp);\n        \n        return newTokenId;\n    }\n\n    function checkOut(address customer, uint256 tokenId) public onlyOwner { \n        require(sharedEVs[tokenId].checkOutDate == 0, \"Not Available\");\n        require(balanceOf(customer) == 0, \"Exceed Max Checkout Limit\");\n        require(ownerOf(tokenId) == msg.sender, \"Not Owner\");\n\n        safeTransferFrom(ownerOf(tokenId), customer, tokenId);\n        sharedEVs[tokenId].checkOutDate = block.timestamp;\n        sharedEVs[tokenId].customer = customer;\n\n        emit checkOutEvent(customer, tokenId, block.timestamp);\n    }\n\n    function checkIn(uint256 tokenId) public { \n        require(ownerOf(tokenId) == msg.sender, \"Not Owner\");\n        //require(ownerOf(tokenId) == customer, \"Not Owner\");\n\n        safeTransferFrom(msg.sender, owner(), tokenId);\n        sharedEVs[tokenId].checkOutDate = 0;\n        sharedEVs[tokenId].customer = owner();\n\n        emit checkInEvent(msg.sender, tokenId, block.timestamp);\n    }\n\n    function getEVInfo() public view returns (SharedEV[] memory) {\n        SharedEV[] memory evs = new SharedEV[](totalSupply());\n        for (uint tokenId = 1; tokenId <= totalSupply(); tokenId++) {\n            evs[tokenId-1] = sharedEVs[tokenId];\n        }\n        return evs;\n    }\n}",
  "sourcePath": "/src/contracts/SharedEV.sol",
  "compiler": {
    "name": "solc",
    "version": "0.7.6+commit.7338295f.Emscripten.clang"
  },
  "schemaVersion": "3.3.4",
  "updatedAt": "2021-03-30T00:30:48.367Z",
  "networkType": "ethereum",
  "devdoc": {
    "kind": "dev",
    "methods": {
      "approve(address,uint256)": {
        "details": "See {IERC721-approve}."
      },
      "balanceOf(address)": {
        "details": "See {IERC721-balanceOf}."
      },
      "baseURI()": {
        "details": "Returns the base URI set via {_setBaseURI}. This will be automatically added as a prefix in {tokenURI} to each token's URI, or to the token ID if no specific URI is set for that token ID."
      },
      "getApproved(uint256)": {
        "details": "See {IERC721-getApproved}."
      },
      "isApprovedForAll(address,address)": {
        "details": "See {IERC721-isApprovedForAll}."
      },
      "name()": {
        "details": "See {IERC721Metadata-name}."
      },
      "owner()": {
        "details": "Returns the address of the current owner."
      },
      "ownerOf(uint256)": {
        "details": "See {IERC721-ownerOf}."
      },
      "renounceOwnership()": {
        "details": "Leaves the contract without owner. It will not be possible to call `onlyOwner` functions anymore. Can only be called by the current owner. NOTE: Renouncing ownership will leave the contract without an owner, thereby removing any functionality that is only available to the owner."
      },
      "safeTransferFrom(address,address,uint256)": {
        "details": "See {IERC721-safeTransferFrom}."
      },
      "safeTransferFrom(address,address,uint256,bytes)": {
        "details": "See {IERC721-safeTransferFrom}."
      },
      "setApprovalForAll(address,bool)": {
        "details": "See {IERC721-setApprovalForAll}."
      },
      "supportsInterface(bytes4)": {
        "details": "See {IERC165-supportsInterface}. Time complexity O(1), guaranteed to always use less than 30 000 gas."
      },
      "symbol()": {
        "details": "See {IERC721Metadata-symbol}."
      },
      "tokenByIndex(uint256)": {
        "details": "See {IERC721Enumerable-tokenByIndex}."
      },
      "tokenOfOwnerByIndex(address,uint256)": {
        "details": "See {IERC721Enumerable-tokenOfOwnerByIndex}."
      },
      "tokenURI(uint256)": {
        "details": "See {IERC721Metadata-tokenURI}."
      },
      "totalSupply()": {
        "details": "See {IERC721Enumerable-totalSupply}."
      },
      "transferFrom(address,address,uint256)": {
        "details": "See {IERC721-transferFrom}."
      },
      "transferOwnership(address)": {
        "details": "Transfers ownership of the contract to a new account (`newOwner`). Can only be called by the current owner."
      }
    },
    "version": 1
  },
  "userdoc": {
    "kind": "user",
    "methods": {},
    "version": 1
  }
}