{
  "contractName": "SharedEV",
  "abi": [
    {
      "inputs": [],
      "stateMutability": "nonpayable",
      "type": "constructor"
    },
    {
      "anonymous": false,
      "inputs": [
        {
          "indexed": true,
          "internalType": "address",
          "name": "owner",
          "type": "address"
        },
        {
          "indexed": true,
          "internalType": "address",
          "name": "approved",
          "type": "address"
        },
        {
          "indexed": true,
          "internalType": "uint256",
          "name": "tokenId",
          "type": "uint256"
        }
      ],
      "name": "Approval",
      "type": "event"
    },
    {
      "anonymous": false,
      "inputs": [
        {
          "indexed": true,
          "internalType": "address",
          "name": "owner",
          "type": "address"
        },
        {
          "indexed": true,
          "internalType": "address",
          "name": "operator",
          "type": "address"
        },
        {
          "indexed": false,
          "internalType": "bool",
          "name": "approved",
          "type": "bool"
        }
      ],
      "name": "ApprovalForAll",
      "type": "event"
    },
    {
      "anonymous": false,
      "inputs": [
        {
          "indexed": true,
          "internalType": "address",
          "name": "previousOwner",
          "type": "address"
        },
        {
          "indexed": true,
          "internalType": "address",
          "name": "newOwner",
          "type": "address"
        }
      ],
      "name": "OwnershipTransferred",
      "type": "event"
    },
    {
      "anonymous": false,
      "inputs": [
        {
          "indexed": true,
          "internalType": "address",
          "name": "from",
          "type": "address"
        },
        {
          "indexed": true,
          "internalType": "address",
          "name": "to",
          "type": "address"
        },
        {
          "indexed": true,
          "internalType": "uint256",
          "name": "tokenId",
          "type": "uint256"
        }
      ],
      "name": "Transfer",
      "type": "event"
    },
    {
      "anonymous": false,
      "inputs": [
        {
          "indexed": false,
          "internalType": "address",
          "name": "customer",
          "type": "address"
        },
        {
          "indexed": false,
          "internalType": "uint256",
          "name": "tokenId",
          "type": "uint256"
        },
        {
          "indexed": false,
          "internalType": "uint256",
          "name": "blockTimeStamp",
          "type": "uint256"
        }
      ],
      "name": "checkInEvent",
      "type": "event"
    },
    {
      "anonymous": false,
      "inputs": [
        {
          "indexed": false,
          "internalType": "address",
          "name": "customer",
          "type": "address"
        },
        {
          "indexed": false,
          "internalType": "uint256",
          "name": "tokenId",
          "type": "uint256"
        },
        {
          "indexed": false,
          "internalType": "uint256",
          "name": "blockTimeStamp",
          "type": "uint256"
        }
      ],
      "name": "checkOutEvent",
      "type": "event"
    },
    {
      "anonymous": false,
      "inputs": [
        {
          "indexed": false,
          "internalType": "address",
          "name": "customer",
          "type": "address"
        },
        {
          "indexed": false,
          "internalType": "uint256",
          "name": "tokenId",
          "type": "uint256"
        },
        {
          "indexed": false,
          "internalType": "string",
          "name": "tokenURI",
          "type": "string"
        },
        {
          "indexed": false,
          "internalType": "uint256",
          "name": "blockTimeStamp",
          "type": "uint256"
        }
      ],
      "name": "createSharedEVEvent",
      "type": "event"
    },
    {
      "inputs": [
        {
          "internalType": "address",
          "name": "to",
          "type": "address"
        },
        {
          "internalType": "uint256",
          "name": "tokenId",
          "type": "uint256"
        }
      ],
      "name": "approve",
      "outputs": [],
      "stateMutability": "nonpayable",
      "type": "function"
    },
    {
      "inputs": [
        {
          "internalType": "address",
          "name": "owner",
          "type": "address"
        }
      ],
      "name": "balanceOf",
      "outputs": [
        {
          "internalType": "uint256",
          "name": "",
          "type": "uint256"
        }
      ],
      "stateMutability": "view",
      "type": "function",
      "constant": true
    },
    {
      "inputs": [],
      "name": "baseURI",
      "outputs": [
        {
          "internalType": "string",
          "name": "",
          "type": "string"
        }
      ],
      "stateMutability": "view",
      "type": "function",
      "constant": true
    },
    {
      "inputs": [
        {
          "internalType": "uint256",
          "name": "tokenId",
          "type": "uint256"
        }
      ],
      "name": "getApproved",
      "outputs": [
        {
          "internalType": "address",
          "name": "",
          "type": "address"
        }
      ],
      "stateMutability": "view",
      "type": "function",
      "constant": true
    },
    {
      "inputs": [
        {
          "internalType": "address",
          "name": "owner",
          "type": "address"
        },
        {
          "internalType": "address",
          "name": "operator",
          "type": "address"
        }
      ],
      "name": "isApprovedForAll",
      "outputs": [
        {
          "internalType": "bool",
          "name": "",
          "type": "bool"
        }
      ],
      "stateMutability": "view",
      "type": "function",
      "constant": true
    },
    {
      "inputs": [],
      "name": "name",
      "outputs": [
        {
          "internalType": "string",
          "name": "",
          "type": "string"
        }
      ],
      "stateMutability": "view",
      "type": "function",
      "constant": true
    },
    {
      "inputs": [],
      "name": "owner",
      "outputs": [
        {
          "internalType": "address",
          "name": "",
          "type": "address"
        }
      ],
      "stateMutability": "view",
      "type": "function",
      "constant": true
    },
    {
      "inputs": [
        {
          "internalType": "uint256",
          "name": "tokenId",
          "type": "uint256"
        }
      ],
      "name": "ownerOf",
      "outputs": [
        {
          "internalType": "address",
          "name": "",
          "type": "address"
        }
      ],
      "stateMutability": "view",
      "type": "function",
      "constant": true
    },
    {
      "inputs": [],
      "name": "renounceOwnership",
      "outputs": [],
      "stateMutability": "nonpayable",
      "type": "function"
    },
    {
      "inputs": [
        {
          "internalType": "address",
          "name": "from",
          "type": "address"
        },
        {
          "internalType": "address",
          "name": "to",
          "type": "address"
        },
        {
          "internalType": "uint256",
          "name": "tokenId",
          "type": "uint256"
        }
      ],
      "name": "safeTransferFrom",
      "outputs": [],
      "stateMutability": "nonpayable",
      "type": "function"
    },
    {
      "inputs": [
        {
          "internalType": "address",
          "name": "from",
          "type": "address"
        },
        {
          "internalType": "address",
          "name": "to",
          "type": "address"
        },
        {
          "internalType": "uint256",
          "name": "tokenId",
          "type": "uint256"
        },
        {
          "internalType": "bytes",
          "name": "_data",
          "type": "bytes"
        }
      ],
      "name": "safeTransferFrom",
      "outputs": [],
      "stateMutability": "nonpayable",
      "type": "function"
    },
    {
      "inputs": [
        {
          "internalType": "address",
          "name": "operator",
          "type": "address"
        },
        {
          "internalType": "bool",
          "name": "approved",
          "type": "bool"
        }
      ],
      "name": "setApprovalForAll",
      "outputs": [],
      "stateMutability": "nonpayable",
      "type": "function"
    },
    {
      "inputs": [
        {
          "internalType": "uint256",
          "name": "",
          "type": "uint256"
        }
      ],
      "name": "sharedEVs",
      "outputs": [
        {
          "internalType": "uint256",
          "name": "tokenId",
          "type": "uint256"
        },
        {
          "internalType": "string",
          "name": "description",
          "type": "string"
        },
        {
          "internalType": "string",
          "name": "tokenURI",
          "type": "string"
        },
        {
          "internalType": "uint256",
          "name": "checkOutDate",
          "type": "uint256"
        }
      ],
      "stateMutability": "view",
      "type": "function",
      "constant": true
    },
    {
      "inputs": [
        {
          "internalType": "bytes4",
          "name": "interfaceId",
          "type": "bytes4"
        }
      ],
      "name": "supportsInterface",
      "outputs": [
        {
          "internalType": "bool",
          "name": "",
          "type": "bool"
        }
      ],
      "stateMutability": "view",
      "type": "function",
      "constant": true
    },
    {
      "inputs": [],
      "name": "symbol",
      "outputs": [
        {
          "internalType": "string",
          "name": "",
          "type": "string"
        }
      ],
      "stateMutability": "view",
      "type": "function",
      "constant": true
    },
    {
      "inputs": [
        {
          "internalType": "uint256",
          "name": "index",
          "type": "uint256"
        }
      ],
      "name": "tokenByIndex",
      "outputs": [
        {
          "internalType": "uint256",
          "name": "",
          "type": "uint256"
        }
      ],
      "stateMutability": "view",
      "type": "function",
      "constant": true
    },
    {
      "inputs": [
        {
          "internalType": "address",
          "name": "owner",
          "type": "address"
        },
        {
          "internalType": "uint256",
          "name": "index",
          "type": "uint256"
        }
      ],
      "name": "tokenOfOwnerByIndex",
      "outputs": [
        {
          "internalType": "uint256",
          "name": "",
          "type": "uint256"
        }
      ],
      "stateMutability": "view",
      "type": "function",
      "constant": true
    },
    {
      "inputs": [
        {
          "internalType": "uint256",
          "name": "tokenId",
          "type": "uint256"
        }
      ],
      "name": "tokenURI",
      "outputs": [
        {
          "internalType": "string",
          "name": "",
          "type": "string"
        }
      ],
      "stateMutability": "view",
      "type": "function",
      "constant": true
    },
    {
      "inputs": [],
      "name": "totalSupply",
      "outputs": [
        {
          "internalType": "uint256",
          "name": "",
          "type": "uint256"
        }
      ],
      "stateMutability": "view",
      "type": "function",
      "constant": true
    },
    {
      "inputs": [
        {
          "internalType": "address",
          "name": "from",
          "type": "address"
        },
        {
          "internalType": "address",
          "name": "to",
          "type": "address"
        },
        {
          "internalType": "uint256",
          "name": "tokenId",
          "type": "uint256"
        }
      ],
      "name": "transferFrom",
      "outputs": [],
      "stateMutability": "nonpayable",
      "type": "function"
    },
    {
      "inputs": [
        {
          "internalType": "address",
          "name": "newOwner",
          "type": "address"
        }
      ],
      "name": "transferOwnership",
      "outputs": [],
      "stateMutability": "nonpayable",
      "type": "function"
    },
    {
      "inputs": [
        {
          "internalType": "string",
          "name": "tokenURI",
          "type": "string"
        }
      ],
      "name": "createSharedEV",
      "outputs": [
        {
          "internalType": "uint256",
          "name": "",
          "type": "uint256"
        }
      ],
      "stateMutability": "nonpayable",
      "type": "function"
    },
    {
      "inputs": [
        {
          "internalType": "address",
          "name": "customer",
          "type": "address"
        },
        {
          "internalType": "uint256",
          "name": "tokenId",
          "type": "uint256"
        }
      ],
      "name": "checkOut",
      "outputs": [],
      "stateMutability": "nonpayable",
      "type": "function"
    },
    {
      "inputs": [
        {
          "internalType": "uint256",
          "name": "tokenId",
          "type": "uint256"
        }
      ],
      "name": "checkIn",
      "outputs": [],
      "stateMutability": "nonpayable",
      "type": "function"
    }
  ],
  "bytecode": "0x60806040523480156200001157600080fd5b506040518060400160405280600881526020017f53686172656445560000000000000000000000000000000000000000000000008152506040518060400160405280600381526020017f5345560000000000000000000000000000000000000000000000000000000000815250600062000090620001c860201b60201c565b9050806000806101000a81548173ffffffffffffffffffffffffffffffffffffffff021916908373ffffffffffffffffffffffffffffffffffffffff1602179055508073ffffffffffffffffffffffffffffffffffffffff16600073ffffffffffffffffffffffffffffffffffffffff167f8be0079c531659141344cd1fd0a4f28419497f9722a3daafe3b4186f6b6457e060405160405180910390a350620001466301ffc9a760e01b620001d060201b60201c565b81600790805190602001906200015e929190620002d9565b50806008908051906020019062000177929190620002d9565b50620001906380ac58cd60e01b620001d060201b60201c565b620001a8635b5e139f60e01b620001d060201b60201c565b620001c063780e9d6360e01b620001d060201b60201c565b50506200038f565b600033905090565b63ffffffff60e01b817bffffffffffffffffffffffffffffffffffffffffffffffffffffffff191614156200026d576040517f08c379a000000000000000000000000000000000000000000000000000000000815260040180806020018281038252601c8152602001807f4552433136353a20696e76616c696420696e746572666163652069640000000081525060200191505060405180910390fd5b6001806000837bffffffffffffffffffffffffffffffffffffffffffffffffffffffff19167bffffffffffffffffffffffffffffffffffffffffffffffffffffffff1916815260200190815260200160002060006101000a81548160ff02191690831515021790555050565b828054600181600116156101000203166002900490600052602060002090601f0160209004810192826200031157600085556200035d565b82601f106200032c57805160ff19168380011785556200035d565b828001600101855582156200035d579182015b828111156200035c5782518255916020019190600101906200033f565b5b5090506200036c919062000370565b5090565b5b808211156200038b57600081600090555060010162000371565b5090565b6139b9806200039f6000396000f3fe608060405234801561001057600080fd5b50600436106101585760003560e01c806370a08231116100c3578063c87b56dd1161007c578063c87b56dd146103d9578063d82da66714610409578063df4799f31461043c578063e95a644f14610458578063e985e9c514610474578063f2fde38b146104a457610158565b806370a082311461032b578063715018a61461035b5780638da5cb5b1461036557806395d89b4114610383578063a22cb465146103a1578063b88d4fde146103bd57610158565b806323b872dd1161011557806323b872dd146102455780632f745c591461026157806342842e0e146102915780634f6ccce7146102ad5780636352211e146102dd5780636c0360eb1461030d57610158565b806301ffc9a71461015d57806306fdde031461018d578063081812fc146101ab578063095ea7b3146101db57806313ff553a146101f757806318160ddd14610227575b600080fd5b61017760048036038101906101729190613134565b6104c0565b60405161018491906133d1565b60405180910390f35b610195610528565b6040516101a291906133ec565b60405180910390f35b6101c560048036038101906101c0919061319e565b6105ca565b6040516101d291906132fc565b60405180910390f35b6101f560048036038101906101f091906130f8565b610665565b005b610211600480360381019061020c919061315d565b6107a9565b60405161021e919061346e565b60405180910390f35b61022f6109a1565b60405161023c919061346e565b60405180910390f35b61025f600480360381019061025a9190612ff2565b6109b2565b005b61027b600480360381019061027691906130f8565b610a28565b604051610288919061346e565b60405180910390f35b6102ab60048036038101906102a69190612ff2565b610a83565b005b6102c760048036038101906102c2919061319e565b610aa3565b6040516102d4919061346e565b60405180910390f35b6102f760048036038101906102f2919061319e565b610ac6565b60405161030491906132fc565b60405180910390f35b610315610afd565b60405161032291906133ec565b60405180910390f35b61034560048036038101906103409190612f8d565b610b9f565b604051610352919061346e565b60405180910390f35b610363610c74565b005b61036d610de1565b60405161037a91906132fc565b60405180910390f35b61038b610e0a565b60405161039891906133ec565b60405180910390f35b6103bb60048036038101906103b691906130bc565b610eac565b005b6103d760048036038101906103d29190613041565b611062565b005b6103f360048036038101906103ee919061319e565b6110da565b60405161040091906133ec565b60405180910390f35b610423600480360381019061041e919061319e565b6113ab565b6040516104339493929190613489565b60405180910390f35b610456600480360381019061045191906130f8565b61150b565b005b610472600480360381019061046d919061319e565b611741565b005b61048e60048036038101906104899190612fb6565b611823565b60405161049b91906133d1565b60405180910390f35b6104be60048036038101906104b99190612f8d565b6118b7565b005b600060016000837bffffffffffffffffffffffffffffffffffffffffffffffffffffffff19167bffffffffffffffffffffffffffffffffffffffffffffffffffffffff1916815260200190815260200160002060009054906101000a900460ff169050919050565b606060078054600181600116156101000203166002900480601f0160208091040260200160405190810160405280929190818152602001828054600181600116156101000203166002900480156105c05780601f10610595576101008083540402835291602001916105c0565b820191906000526020600020905b8154815290600101906020018083116105a357829003601f168201915b5050505050905090565b60006105d582611aa9565b61062a576040517f08c379a000000000000000000000000000000000000000000000000000000000815260040180806020018281038252602c815260200180613882602c913960400191505060405180910390fd5b6005600083815260200190815260200160002060009054906101000a900473ffffffffffffffffffffffffffffffffffffffff169050919050565b600061067082610ac6565b90508073ffffffffffffffffffffffffffffffffffffffff168373ffffffffffffffffffffffffffffffffffffffff1614156106f7576040517f08c379a00000000000000000000000000000000000000000000000000000000081526004018080602001828103825260218152602001806139326021913960400191505060405180910390fd5b8073ffffffffffffffffffffffffffffffffffffffff16610716611ac6565b73ffffffffffffffffffffffffffffffffffffffff16148061074557506107448161073f611ac6565b611823565b5b61079a576040517f08c379a00000000000000000000000000000000000000000000000000000000081526004018080602001828103825260388152602001806137d56038913960400191505060405180910390fd5b6107a48383611ace565b505050565b60006107b3611ac6565b73ffffffffffffffffffffffffffffffffffffffff166107d1610de1565b73ffffffffffffffffffffffffffffffffffffffff161461085a576040517f08c379a00000000000000000000000000000000000000000000000000000000081526004018080602001828103825260208152602001807f4f776e61626c653a2063616c6c6572206973206e6f7420746865206f776e657281525060200191505060405180910390fd5b610864600b611b87565b6000610870600b611b9d565b905061088361087d610de1565b82611bab565b61088d8184611d9f565b610895612d96565b60405180608001604052808381526020016040518060400160405280600a81526020017f476f6f676c65204361720000000000000000000000000000000000000000000081525081526020018581526020016000815250905080600c6000848152602001908152602001600020600082015181600001556020820151816001019080519060200190610928929190612dbe565b506040820151816002019080519060200190610945929190612dbe565b50606082015181600301559050507f3662ba99b793b274034e4eb206a45cd6c80ad7d0b922548443cdcb7d50d2b99761097c610de1565b83864260405161098f949392919061334e565b60405180910390a18192505050919050565b60006109ad6003611e29565b905090565b6109c36109bd611ac6565b82611e3e565b610a18576040517f08c379a00000000000000000000000000000000000000000000000000000000081526004018080602001828103825260318152602001806139536031913960400191505060405180910390fd5b610a23838383611f32565b505050565b6000610a7b82600260008673ffffffffffffffffffffffffffffffffffffffff1673ffffffffffffffffffffffffffffffffffffffff16815260200190815260200160002061217590919063ffffffff16565b905092915050565b610a9e83838360405180602001604052806000815250611062565b505050565b600080610aba83600361218f90919063ffffffff16565b50905080915050919050565b6000610af6826040518060600160405280602981526020016138376029913960036121bb9092919063ffffffff16565b9050919050565b6060600a8054600181600116156101000203166002900480601f016020809104026020016040519081016040528092919081815260200182805460018160011615610100020316600290048015610b955780601f10610b6a57610100808354040283529160200191610b95565b820191906000526020600020905b815481529060010190602001808311610b7857829003601f168201915b5050505050905090565b60008073ffffffffffffffffffffffffffffffffffffffff168273ffffffffffffffffffffffffffffffffffffffff161415610c26576040517f08c379a000000000000000000000000000000000000000000000000000000000815260040180806020018281038252602a81526020018061380d602a913960400191505060405180910390fd5b610c6d600260008473ffffffffffffffffffffffffffffffffffffffff1673ffffffffffffffffffffffffffffffffffffffff1681526020019081526020016000206121da565b9050919050565b610c7c611ac6565b73ffffffffffffffffffffffffffffffffffffffff16610c9a610de1565b73ffffffffffffffffffffffffffffffffffffffff1614610d23576040517f08c379a00000000000000000000000000000000000000000000000000000000081526004018080602001828103825260208152602001807f4f776e61626c653a2063616c6c6572206973206e6f7420746865206f776e657281525060200191505060405180910390fd5b600073ffffffffffffffffffffffffffffffffffffffff1660008054906101000a900473ffffffffffffffffffffffffffffffffffffffff1673ffffffffffffffffffffffffffffffffffffffff167f8be0079c531659141344cd1fd0a4f28419497f9722a3daafe3b4186f6b6457e060405160405180910390a360008060006101000a81548173ffffffffffffffffffffffffffffffffffffffff021916908373ffffffffffffffffffffffffffffffffffffffff160217905550565b60008060009054906101000a900473ffffffffffffffffffffffffffffffffffffffff16905090565b606060088054600181600116156101000203166002900480601f016020809104026020016040519081016040528092919081815260200182805460018160011615610100020316600290048015610ea25780601f10610e7757610100808354040283529160200191610ea2565b820191906000526020600020905b815481529060010190602001808311610e8557829003601f168201915b5050505050905090565b610eb4611ac6565b73ffffffffffffffffffffffffffffffffffffffff168273ffffffffffffffffffffffffffffffffffffffff161415610f55576040517f08c379a00000000000000000000000000000000000000000000000000000000081526004018080602001828103825260198152602001807f4552433732313a20617070726f766520746f2063616c6c65720000000000000081525060200191505060405180910390fd5b8060066000610f62611ac6565b73ffffffffffffffffffffffffffffffffffffffff1673ffffffffffffffffffffffffffffffffffffffff16815260200190815260200160002060008473ffffffffffffffffffffffffffffffffffffffff1673ffffffffffffffffffffffffffffffffffffffff16815260200190815260200160002060006101000a81548160ff0219169083151502179055508173ffffffffffffffffffffffffffffffffffffffff1661100f611ac6565b73ffffffffffffffffffffffffffffffffffffffff167f17307eab39ab6107e8899845ad3d59bd9653f200f220920489ca2b5937696c318360405180821515815260200191505060405180910390a35050565b61107361106d611ac6565b83611e3e565b6110c8576040517f08c379a00000000000000000000000000000000000000000000000000000000081526004018080602001828103825260318152602001806139536031913960400191505060405180910390fd5b6110d4848484846121ef565b50505050565b60606110e582611aa9565b61113a576040517f08c379a000000000000000000000000000000000000000000000000000000000815260040180806020018281038252602f815260200180613903602f913960400191505060405180910390fd5b6000600960008481526020019081526020016000208054600181600116156101000203166002900480601f0160208091040260200160405190810160405280929190818152602001828054600181600116156101000203166002900480156111e35780601f106111b8576101008083540402835291602001916111e3565b820191906000526020600020905b8154815290600101906020018083116111c657829003601f168201915b5050505050905060006111f4610afd565b905060008151141561120a5781925050506113a6565b6000825111156112db5780826040516020018083805190602001908083835b6020831061124c5780518252602082019150602081019050602083039250611229565b6001836020036101000a03801982511681845116808217855250505050505090500182805190602001908083835b6020831061129d578051825260208201915060208101905060208303925061127a565b6001836020036101000a03801982511681845116808217855250505050505090500192505050604051602081830303815290604052925050506113a6565b806112e585612261565b6040516020018083805190602001908083835b6020831061131b57805182526020820191506020810190506020830392506112f8565b6001836020036101000a03801982511681845116808217855250505050505090500182805190602001908083835b6020831061136c5780518252602082019150602081019050602083039250611349565b6001836020036101000a03801982511681845116808217855250505050505090500192505050604051602081830303815290604052925050505b919050565b600c602052806000526040600020600091509050806000015490806001018054600181600116156101000203166002900480601f01602080910402602001604051908101604052809291908181526020018280546001816001161561010002031660029004801561145d5780601f106114325761010080835404028352916020019161145d565b820191906000526020600020905b81548152906001019060200180831161144057829003601f168201915b505050505090806002018054600181600116156101000203166002900480601f0160208091040260200160405190810160405280929190818152602001828054600181600116156101000203166002900480156114fb5780601f106114d0576101008083540402835291602001916114fb565b820191906000526020600020905b8154815290600101906020018083116114de57829003601f168201915b5050505050908060030154905084565b611513611ac6565b73ffffffffffffffffffffffffffffffffffffffff16611531610de1565b73ffffffffffffffffffffffffffffffffffffffff16146115ba576040517f08c379a00000000000000000000000000000000000000000000000000000000081526004018080602001828103825260208152602001807f4f776e61626c653a2063616c6c6572206973206e6f7420746865206f776e657281525060200191505060405180910390fd5b6000600c60008381526020019081526020016000206003015414611613576040517f08c379a000000000000000000000000000000000000000000000000000000000815260040161160a9061340e565b60405180910390fd5b600061161e83610b9f565b1461165e576040517f08c379a00000000000000000000000000000000000000000000000000000000081526004016116559061344e565b60405180910390fd5b3373ffffffffffffffffffffffffffffffffffffffff1661167e82610ac6565b73ffffffffffffffffffffffffffffffffffffffff16146116d4576040517f08c379a00000000000000000000000000000000000000000000000000000000081526004016116cb9061342e565b60405180910390fd5b6116e76116e082610ac6565b8383610a83565b42600c6000838152602001908152602001600020600301819055507fd62d2dce59b7c1a71bef89b301e5facbbedba228dc05ea37edafd5adab6c1aab8282426040516117359392919061339a565b60405180910390a15050565b3373ffffffffffffffffffffffffffffffffffffffff1661176182610ac6565b73ffffffffffffffffffffffffffffffffffffffff16146117b7576040517f08c379a00000000000000000000000000000000000000000000000000000000081526004016117ae9061342e565b60405180910390fd5b6117c9336117c3610de1565b83610a83565b6000600c6000838152602001908152602001600020600301819055507fa96182fb4594075f7d13f4665d2f1b798273b8e821eeda6664679f01f7fb0bbd33824260405161181893929190613317565b60405180910390a150565b6000600660008473ffffffffffffffffffffffffffffffffffffffff1673ffffffffffffffffffffffffffffffffffffffff16815260200190815260200160002060008373ffffffffffffffffffffffffffffffffffffffff1673ffffffffffffffffffffffffffffffffffffffff16815260200190815260200160002060009054906101000a900460ff16905092915050565b6118bf611ac6565b73ffffffffffffffffffffffffffffffffffffffff166118dd610de1565b73ffffffffffffffffffffffffffffffffffffffff1614611966576040517f08c379a00000000000000000000000000000000000000000000000000000000081526004018080602001828103825260208152602001807f4f776e61626c653a2063616c6c6572206973206e6f7420746865206f776e657281525060200191505060405180910390fd5b600073ffffffffffffffffffffffffffffffffffffffff168173ffffffffffffffffffffffffffffffffffffffff1614156119ec576040517f08c379a00000000000000000000000000000000000000000000000000000000081526004018080602001828103825260268152602001806137396026913960400191505060405180910390fd5b8073ffffffffffffffffffffffffffffffffffffffff1660008054906101000a900473ffffffffffffffffffffffffffffffffffffffff1673ffffffffffffffffffffffffffffffffffffffff167f8be0079c531659141344cd1fd0a4f28419497f9722a3daafe3b4186f6b6457e060405160405180910390a3806000806101000a81548173ffffffffffffffffffffffffffffffffffffffff021916908373ffffffffffffffffffffffffffffffffffffffff16021790555050565b6000611abf8260036123a890919063ffffffff16565b9050919050565b600033905090565b816005600083815260200190815260200160002060006101000a81548173ffffffffffffffffffffffffffffffffffffffff021916908373ffffffffffffffffffffffffffffffffffffffff160217905550808273ffffffffffffffffffffffffffffffffffffffff16611b4183610ac6565b73ffffffffffffffffffffffffffffffffffffffff167f8c5be1e5ebec7d5bd14f71427d1e84f3dd0314c0f7b2291e5b200ac8c7c3b92560405160405180910390a45050565b6001816000016000828254019250508190555050565b600081600001549050919050565b600073ffffffffffffffffffffffffffffffffffffffff168273ffffffffffffffffffffffffffffffffffffffff161415611c4e576040517f08c379a00000000000000000000000000000000000000000000000000000000081526004018080602001828103825260208152602001807f4552433732313a206d696e7420746f20746865207a65726f206164647265737381525060200191505060405180910390fd5b611c5781611aa9565b15611cca576040517f08c379a000000000000000000000000000000000000000000000000000000000815260040180806020018281038252601c8152602001807f4552433732313a20746f6b656e20616c7265616479206d696e7465640000000081525060200191505060405180910390fd5b611cd6600083836123c2565b611d2781600260008573ffffffffffffffffffffffffffffffffffffffff1673ffffffffffffffffffffffffffffffffffffffff1681526020019081526020016000206123c790919063ffffffff16565b50611d3e818360036123e19092919063ffffffff16565b50808273ffffffffffffffffffffffffffffffffffffffff16600073ffffffffffffffffffffffffffffffffffffffff167fddf252ad1be2c89b69c2b068fc378daa952ba7f163c4a11628f55a4df523b3ef60405160405180910390a45050565b611da882611aa9565b611dfd576040517f08c379a000000000000000000000000000000000000000000000000000000000815260040180806020018281038252602c8152602001806138ae602c913960400191505060405180910390fd5b80600960008481526020019081526020016000209080519060200190611e24929190612dbe565b505050565b6000611e3782600001612416565b9050919050565b6000611e4982611aa9565b611e9e576040517f08c379a000000000000000000000000000000000000000000000000000000000815260040180806020018281038252602c8152602001806137a9602c913960400191505060405180910390fd5b6000611ea983610ac6565b90508073ffffffffffffffffffffffffffffffffffffffff168473ffffffffffffffffffffffffffffffffffffffff161480611f1857508373ffffffffffffffffffffffffffffffffffffffff16611f00846105ca565b73ffffffffffffffffffffffffffffffffffffffff16145b80611f295750611f288185611823565b5b91505092915050565b8273ffffffffffffffffffffffffffffffffffffffff16611f5282610ac6565b73ffffffffffffffffffffffffffffffffffffffff1614611fbe576040517f08c379a00000000000000000000000000000000000000000000000000000000081526004018080602001828103825260298152602001806138da6029913960400191505060405180910390fd5b600073ffffffffffffffffffffffffffffffffffffffff168273ffffffffffffffffffffffffffffffffffffffff161415612044576040517f08c379a000000000000000000000000000000000000000000000000000000000815260040180806020018281038252602481526020018061375f6024913960400191505060405180910390fd5b61204f8383836123c2565b61205a600082611ace565b6120ab81600260008673ffffffffffffffffffffffffffffffffffffffff1673ffffffffffffffffffffffffffffffffffffffff16815260200190815260200160002061242790919063ffffffff16565b506120fd81600260008573ffffffffffffffffffffffffffffffffffffffff1673ffffffffffffffffffffffffffffffffffffffff1681526020019081526020016000206123c790919063ffffffff16565b50612114818360036123e19092919063ffffffff16565b50808273ffffffffffffffffffffffffffffffffffffffff168473ffffffffffffffffffffffffffffffffffffffff167fddf252ad1be2c89b69c2b068fc378daa952ba7f163c4a11628f55a4df523b3ef60405160405180910390a4505050565b60006121848360000183612441565b60001c905092915050565b6000806000806121a286600001866124c4565b915091508160001c8160001c9350935050509250929050565b60006121ce846000018460001b8461255d565b60001c90509392505050565b60006121e882600001612653565b9050919050565b6121fa848484611f32565b61220684848484612664565b61225b576040517f08c379a00000000000000000000000000000000000000000000000000000000081526004018080602001828103825260328152602001806137076032913960400191505060405180910390fd5b50505050565b606060008214156122a9576040518060400160405280600181526020017f300000000000000000000000000000000000000000000000000000000000000081525090506123a3565b600082905060005b600082146122d3578080600101915050600a82816122cb57fe5b0491506122b1565b60008167ffffffffffffffff811180156122ec57600080fd5b506040519080825280601f01601f19166020018201604052801561231f5781602001600182028036833780820191505090505b50905060006001830390508593505b6000841461239b57600a848161234057fe5b0660300160f81b8282806001900393508151811061235a57fe5b60200101907effffffffffffffffffffffffffffffffffffffffffffffffffffffffffffff1916908160001a905350600a848161239357fe5b04935061232e565b819450505050505b919050565b60006123ba836000018360001b61287d565b905092915050565b505050565b60006123d9836000018360001b6128a0565b905092915050565b600061240d846000018460001b8473ffffffffffffffffffffffffffffffffffffffff1660001b612910565b90509392505050565b600081600001805490509050919050565b6000612439836000018360001b6129ec565b905092915050565b6000818360000180549050116124a2576040517f08c379a00000000000000000000000000000000000000000000000000000000081526004018080602001828103825260228152602001806136e56022913960400191505060405180910390fd5b8260000182815481106124b157fe5b9060005260206000200154905092915050565b60008082846000018054905011612526576040517f08c379a00000000000000000000000000000000000000000000000000000000081526004018080602001828103825260228152602001806138606022913960400191505060405180910390fd5b600084600001848154811061253757fe5b906000526020600020906002020190508060000154816001015492509250509250929050565b60008084600101600085815260200190815260200160002054905060008114158390612624576040517f08c379a00000000000000000000000000000000000000000000000000000000081526004018080602001828103825283818151815260200191508051906020019080838360005b838110156125e95780820151818401526020810190506125ce565b50505050905090810190601f1680156126165780820380516001836020036101000a031916815260200191505b509250505060405180910390fd5b5084600001600182038154811061263757fe5b9060005260206000209060020201600101549150509392505050565b600081600001805490509050919050565b60006126858473ffffffffffffffffffffffffffffffffffffffff16612ad4565b6126925760019050612875565b60006127fc63150b7a0260e01b6126a7611ac6565b888787604051602401808573ffffffffffffffffffffffffffffffffffffffff1681526020018473ffffffffffffffffffffffffffffffffffffffff16815260200183815260200180602001828103825283818151815260200191508051906020019080838360005b8381101561272b578082015181840152602081019050612710565b50505050905090810190601f1680156127585780820380516001836020036101000a031916815260200191505b5095505050505050604051602081830303815290604052907bffffffffffffffffffffffffffffffffffffffffffffffffffffffff19166020820180517bffffffffffffffffffffffffffffffffffffffffffffffffffffffff8381831617835250505050604051806060016040528060328152602001613707603291398773ffffffffffffffffffffffffffffffffffffffff16612ae79092919063ffffffff16565b9050600081806020019051602081101561281557600080fd5b8101908080519060200190929190505050905063150b7a0260e01b7bffffffffffffffffffffffffffffffffffffffffffffffffffffffff1916817bffffffffffffffffffffffffffffffffffffffffffffffffffffffff191614925050505b949350505050565b600080836001016000848152602001908152602001600020541415905092915050565b60006128ac8383612aff565b61290557826000018290806001815401808255809150506001900390600052602060002001600090919091909150558260000180549050836001016000848152602001908152602001600020819055506001905061290a565b600090505b92915050565b60008084600101600085815260200190815260200160002054905060008114156129b7578460000160405180604001604052808681526020018581525090806001815401808255809150506001900390600052602060002090600202016000909190919091506000820151816000015560208201518160010155505084600001805490508560010160008681526020019081526020016000208190555060019150506129e5565b828560000160018303815481106129ca57fe5b90600052602060002090600202016001018190555060009150505b9392505050565b60008083600101600084815260200190815260200160002054905060008114612ac85760006001820390506000600186600001805490500390506000866000018281548110612a3757fe5b9060005260206000200154905080876000018481548110612a5457fe5b9060005260206000200181905550600183018760010160008381526020019081526020016000208190555086600001805480612a8c57fe5b60019003818190600052602060002001600090559055866001016000878152602001908152602001600020600090556001945050505050612ace565b60009150505b92915050565b600080823b905060008111915050919050565b6060612af68484600085612b22565b90509392505050565b600080836001016000848152602001908152602001600020541415905092915050565b606082471015612b7d576040517f08c379a00000000000000000000000000000000000000000000000000000000081526004018080602001828103825260268152602001806137836026913960400191505060405180910390fd5b612b8685612ad4565b612bf8576040517f08c379a000000000000000000000000000000000000000000000000000000000815260040180806020018281038252601d8152602001807f416464726573733a2063616c6c20746f206e6f6e2d636f6e747261637400000081525060200191505060405180910390fd5b6000808673ffffffffffffffffffffffffffffffffffffffff1685876040518082805190602001908083835b60208310612c475780518252602082019150602081019050602083039250612c24565b6001836020036101000a03801982511681845116808217855250505050505090500191505060006040518083038185875af1925050503d8060008114612ca9576040519150601f19603f3d011682016040523d82523d6000602084013e612cae565b606091505b5091509150612cbe828286612cca565b92505050949350505050565b60608315612cda57829050612d8f565b600083511115612ced5782518084602001fd5b816040517f08c379a00000000000000000000000000000000000000000000000000000000081526004018080602001828103825283818151815260200191508051906020019080838360005b83811015612d54578082015181840152602081019050612d39565b50505050905090810190601f168015612d815780820380516001836020036101000a031916815260200191505b509250505060405180910390fd5b9392505050565b6040518060800160405280600081526020016060815260200160608152602001600081525090565b828054600181600116156101000203166002900490600052602060002090601f016020900481019282612df45760008555612e3b565b82601f10612e0d57805160ff1916838001178555612e3b565b82800160010185558215612e3b579182015b82811115612e3a578251825591602001919060010190612e1f565b5b509050612e489190612e4c565b5090565b5b80821115612e65576000816000905550600101612e4d565b5090565b6000612e7c612e778461350d565b6134dc565b905082815260208101848484011115612e9457600080fd5b612e9f848285613633565b509392505050565b6000612eba612eb58461353d565b6134dc565b905082815260208101848484011115612ed257600080fd5b612edd848285613633565b509392505050565b600081359050612ef481613688565b92915050565b600081359050612f098161369f565b92915050565b600081359050612f1e816136b6565b92915050565b600082601f830112612f3557600080fd5b8135612f45848260208601612e69565b91505092915050565b600082601f830112612f5f57600080fd5b8135612f6f848260208601612ea7565b91505092915050565b600081359050612f87816136cd565b92915050565b600060208284031215612f9f57600080fd5b6000612fad84828501612ee5565b91505092915050565b60008060408385031215612fc957600080fd5b6000612fd785828601612ee5565b9250506020612fe885828601612ee5565b9150509250929050565b60008060006060848603121561300757600080fd5b600061301586828701612ee5565b935050602061302686828701612ee5565b925050604061303786828701612f78565b9150509250925092565b6000806000806080858703121561305757600080fd5b600061306587828801612ee5565b945050602061307687828801612ee5565b935050604061308787828801612f78565b925050606085013567ffffffffffffffff8111156130a457600080fd5b6130b087828801612f24565b91505092959194509250565b600080604083850312156130cf57600080fd5b60006130dd85828601612ee5565b92505060206130ee85828601612efa565b9150509250929050565b6000806040838503121561310b57600080fd5b600061311985828601612ee5565b925050602061312a85828601612f78565b9150509250929050565b60006020828403121561314657600080fd5b600061315484828501612f0f565b91505092915050565b60006020828403121561316f57600080fd5b600082013567ffffffffffffffff81111561318957600080fd5b61319584828501612f4e565b91505092915050565b6000602082840312156131b057600080fd5b60006131be84828501612f78565b91505092915050565b6131d0816135fd565b82525050565b6131df81613589565b82525050565b6131ee8161359b565b82525050565b60006131ff8261356d565b6132098185613578565b9350613219818560208601613642565b61322281613677565b840191505092915050565b600061323a600d83613578565b91507f4e6f7420417661696c61626c65000000000000000000000000000000000000006000830152602082019050919050565b600061327a600983613578565b91507f4e6f74204f776e657200000000000000000000000000000000000000000000006000830152602082019050919050565b60006132ba601983613578565b91507f457863656564204d617820436865636b6f7574204c696d6974000000000000006000830152602082019050919050565b6132f6816135f3565b82525050565b600060208201905061331160008301846131d6565b92915050565b600060608201905061332c60008301866131c7565b61333960208301856132ed565b61334660408301846132ed565b949350505050565b600060808201905061336360008301876131d6565b61337060208301866132ed565b818103604083015261338281856131f4565b905061339160608301846132ed565b95945050505050565b60006060820190506133af60008301866131d6565b6133bc60208301856132ed565b6133c960408301846132ed565b949350505050565b60006020820190506133e660008301846131e5565b92915050565b6000602082019050818103600083015261340681846131f4565b905092915050565b600060208201905081810360008301526134278161322d565b9050919050565b600060208201905081810360008301526134478161326d565b9050919050565b60006020820190508181036000830152613467816132ad565b9050919050565b600060208201905061348360008301846132ed565b92915050565b600060808201905061349e60008301876132ed565b81810360208301526134b081866131f4565b905081810360408301526134c481856131f4565b90506134d360608301846132ed565b95945050505050565b6000604051905081810181811067ffffffffffffffff8211171561350357613502613675565b5b8060405250919050565b600067ffffffffffffffff82111561352857613527613675565b5b601f19601f8301169050602081019050919050565b600067ffffffffffffffff82111561355857613557613675565b5b601f19601f8301169050602081019050919050565b600081519050919050565b600082825260208201905092915050565b6000613594826135d3565b9050919050565b60008115159050919050565b60007fffffffff0000000000000000000000000000000000000000000000000000000082169050919050565b600073ffffffffffffffffffffffffffffffffffffffff82169050919050565b6000819050919050565b60006136088261360f565b9050919050565b600061361a82613621565b9050919050565b600061362c826135d3565b9050919050565b82818337600083830152505050565b60005b83811015613660578082015181840152602081019050613645565b8381111561366f576000848401525b50505050565bfe5b6000601f19601f8301169050919050565b61369181613589565b811461369c57600080fd5b50565b6136a88161359b565b81146136b357600080fd5b50565b6136bf816135a7565b81146136ca57600080fd5b50565b6136d6816135f3565b81146136e157600080fd5b5056fe456e756d657261626c655365743a20696e646578206f7574206f6620626f756e64734552433732313a207472616e7366657220746f206e6f6e20455243373231526563656976657220696d706c656d656e7465724f776e61626c653a206e6577206f776e657220697320746865207a65726f20616464726573734552433732313a207472616e7366657220746f20746865207a65726f2061646472657373416464726573733a20696e73756666696369656e742062616c616e636520666f722063616c6c4552433732313a206f70657261746f7220717565727920666f72206e6f6e6578697374656e7420746f6b656e4552433732313a20617070726f76652063616c6c6572206973206e6f74206f776e6572206e6f7220617070726f76656420666f7220616c6c4552433732313a2062616c616e636520717565727920666f7220746865207a65726f20616464726573734552433732313a206f776e657220717565727920666f72206e6f6e6578697374656e7420746f6b656e456e756d657261626c654d61703a20696e646578206f7574206f6620626f756e64734552433732313a20617070726f76656420717565727920666f72206e6f6e6578697374656e7420746f6b656e4552433732314d657461646174613a2055524920736574206f66206e6f6e6578697374656e7420746f6b656e4552433732313a207472616e73666572206f6620746f6b656e2074686174206973206e6f74206f776e4552433732314d657461646174613a2055524920717565727920666f72206e6f6e6578697374656e7420746f6b656e4552433732313a20617070726f76616c20746f2063757272656e74206f776e65724552433732313a207472616e736665722063616c6c6572206973206e6f74206f776e6572206e6f7220617070726f766564a26469706673582212209a27b9b38dd47fd152ec34832582c2732aae9a3cb04ee5a47812e6975f659c8864736f6c63430007060033",
  "immutableReferences": {},
  "source": "// contracts/SharedEV.sol\n// SPDX-License-Identifier: MIT\npragma solidity ^0.7.4;\npragma experimental ABIEncoderV2;\n\nimport \"@openzeppelin/contracts/token/ERC721/ERC721.sol\";\nimport \"@openzeppelin/contracts/utils/Counters.sol\";\n\n// Import Ownable from the OpenZeppelin Contracts library\nimport \"@openzeppelin/contracts/access/Ownable.sol\";\n\ncontract SharedEV is Ownable, ERC721 {\n    using Counters for Counters.Counter;\n    Counters.Counter private _tokenIds;\n\n    struct SharedEV { \n        uint256 tokenId;\n        string description;\n        string tokenURI;\n        uint256 checkOutDate;  // 0 - Available\n    }\n    \n    mapping (uint256 => SharedEV) public sharedEVs;\n\n    event createSharedEVEvent(address customer, uint256 tokenId, string tokenURI, uint256 blockTimeStamp);\n    event checkOutEvent(address customer, uint256 tokenId, uint256 blockTimeStamp);\n    event checkInEvent(address customer, uint256 tokenId, uint256 blockTimeStamp);\n\n    constructor() public ERC721(\"SharedEV\", \"SEV\") {}\n\n    function createSharedEV(string memory tokenURI) public onlyOwner returns (uint256) {\n        _tokenIds.increment();\n\n        uint256 newTokenId = _tokenIds.current();\n        _mint(owner(), newTokenId);\n        _setTokenURI(newTokenId, tokenURI);\n\n        SharedEV memory newItem;\n        newItem = SharedEV(newTokenId,\"Google Car\",tokenURI,0);\n        sharedEVs[newTokenId] = newItem;\n        \n        emit createSharedEVEvent(owner(), newTokenId, tokenURI, block.timestamp);\n        \n        return newTokenId;\n    }\n\n    function checkOut(address customer, uint256 tokenId) public onlyOwner { \n        require(sharedEVs[tokenId].checkOutDate == 0, \"Not Available\");\n        require(balanceOf(customer) == 0, \"Exceed Max Checkout Limit\");\n        require(ownerOf(tokenId) == msg.sender, \"Not Owner\");\n\n        safeTransferFrom(ownerOf(tokenId), customer, tokenId);\n        sharedEVs[tokenId].checkOutDate = block.timestamp;\n\n        emit checkOutEvent(customer, tokenId, block.timestamp);\n    }\n\n    function checkIn(uint256 tokenId) public { \n        require(ownerOf(tokenId) == msg.sender, \"Not Owner\");\n        //require(ownerOf(tokenId) == customer, \"Not Owner\");\n\n        safeTransferFrom(msg.sender, owner(), tokenId);\n        sharedEVs[tokenId].checkOutDate = 0;\n\n        emit checkInEvent(msg.sender, tokenId, block.timestamp);\n    }\n}",
  "sourcePath": "/src/contracts/SharedEV.sol",
  "compiler": {
    "name": "solc",
    "version": "0.7.6+commit.7338295f.Emscripten.clang"
  },
  "schemaVersion": "3.3.4",
  "updatedAt": "2021-03-26T15:24:33.962Z",
  "networkType": "ethereum",
  "devdoc": {
    "kind": "dev",
    "methods": {
      "approve(address,uint256)": {
        "details": "See {IERC721-approve}."
      },
      "balanceOf(address)": {
        "details": "See {IERC721-balanceOf}."
      },
      "baseURI()": {
        "details": "Returns the base URI set via {_setBaseURI}. This will be automatically added as a prefix in {tokenURI} to each token's URI, or to the token ID if no specific URI is set for that token ID."
      },
      "getApproved(uint256)": {
        "details": "See {IERC721-getApproved}."
      },
      "isApprovedForAll(address,address)": {
        "details": "See {IERC721-isApprovedForAll}."
      },
      "name()": {
        "details": "See {IERC721Metadata-name}."
      },
      "owner()": {
        "details": "Returns the address of the current owner."
      },
      "ownerOf(uint256)": {
        "details": "See {IERC721-ownerOf}."
      },
      "renounceOwnership()": {
        "details": "Leaves the contract without owner. It will not be possible to call `onlyOwner` functions anymore. Can only be called by the current owner. NOTE: Renouncing ownership will leave the contract without an owner, thereby removing any functionality that is only available to the owner."
      },
      "safeTransferFrom(address,address,uint256)": {
        "details": "See {IERC721-safeTransferFrom}."
      },
      "safeTransferFrom(address,address,uint256,bytes)": {
        "details": "See {IERC721-safeTransferFrom}."
      },
      "setApprovalForAll(address,bool)": {
        "details": "See {IERC721-setApprovalForAll}."
      },
      "supportsInterface(bytes4)": {
        "details": "See {IERC165-supportsInterface}. Time complexity O(1), guaranteed to always use less than 30 000 gas."
      },
      "symbol()": {
        "details": "See {IERC721Metadata-symbol}."
      },
      "tokenByIndex(uint256)": {
        "details": "See {IERC721Enumerable-tokenByIndex}."
      },
      "tokenOfOwnerByIndex(address,uint256)": {
        "details": "See {IERC721Enumerable-tokenOfOwnerByIndex}."
      },
      "tokenURI(uint256)": {
        "details": "See {IERC721Metadata-tokenURI}."
      },
      "totalSupply()": {
        "details": "See {IERC721Enumerable-totalSupply}."
      },
      "transferFrom(address,address,uint256)": {
        "details": "See {IERC721-transferFrom}."
      },
      "transferOwnership(address)": {
        "details": "Transfers ownership of the contract to a new account (`newOwner`). Can only be called by the current owner."
      }
    },
    "version": 1
  },
  "userdoc": {
    "kind": "user",
    "methods": {},
    "version": 1
  }
}